:020000040800F2
:10000000D8070020890100089B290008611E00080C
:1000100099290008F3020008C92C0008000000001C
:10002000000000000000000000000000BD290008E2
:10003000F5020008000000009D290008BF29000803
:10004000A3010008A3010008A3010008A301000800
:10005000A3010008A3010008A3010008A3010008F0
:10006000A3010008A3010008A3010008A3010008E0
:10007000A3010008A3010008A3010008A3010008D0
:10008000A3010008A301000891020008A3010008D1
:10009000A3010008A3010008A3010008A3010008B0
:1000A000A3010008A3010008A3010008A3010008A0
:1000B0002D2A0008A3010008A3010008711E0008F2
:1000C000651E0008A3010008A3010008A12900087B
:1000D000A3010008BD2C0008A3010008A30100082B
:1000E000A3010008A3010008A301000800F002F822
:1000F00000F03AF80AA090E8000C82448344AAF188
:100100000107DA4501D100F02FF8AFF2090EBAE885
:100110000F0013F0010F18BFFB1A43F0010318473B
:10012000642C0000842C0000103A24BF78C878C1E9
:10013000FAD8520724BF30C830C144BF04680C60ED
:10014000704700000023002400250026103A28BF35
:1001500078C1FBD8520728BF30C148BF0B60704739
:100160001FB51FBD10B510BD00F058F81146FFF7C0
:10017000F7FF02F0BBFD00F076F803B4FFF7F2FFE3
:1001800003BC00F07DF8000009488047094800479B
:10019000FEE7FEE7FEE7FEE7FEE7FEE7FEE7FEE737
:1001A000FEE7FEE704480549054A064B7047000094
:1001B0002B2A0008ED000008D8010020D8070020F5
:1001C000D8030020D80300204FF0000200B51346EA
:1001D00094469646203922BFA0E80C50A0E80C5067
:1001E000B1F12001BFF4F7AF090728BFA0E80C5018
:1001F00048BF0CC05DF804EB890028BF40F8042B11
:1002000008BF704748BF20F8022B11F0804F18BF7D
:1002100000F8012B7047704770477047754600F033
:100220002BF8AE4605006946534620F00700854688
:1002300018B020B5FFF7B6FFBDE820404FF000062C
:100240004FF000074FF000084FF0000B21F00701BE
:10025000AC46ACE8C009ACE8C009ACE8C009ACE801
:10026000C0098D46704710B50446AFF300802046A4
:10027000BDE81040FFF781BF0048704778010020BB
:1002800001491820ABBEFEE72600020070470000BF
:10029000014800F0B0B800001000002070B504461E
:1002A00000688168C943C90717D1816821F001013D
:1002B000816000F049FB05460AE000BF00F044FB06
:1002C000401B022804D920688068C043C00706D0BC
:1002D00020688068C043C007F0D0002070BDA06ACD
:1002E00040F01000A062E06A40F00100E0620120EE
:1002F00070BDFEE770477047F8B50024009490F891
:1003000024202546012A12D0012280F824204A68A0
:100310001F23072A0DD20668776B521E02EB82025A
:1003200093409F430B6893401F43776319E002207B
:10033000F8BD06680D2A0AD2376BD21F02EB820283
:1003400093409F430B6893401F43376309E0F76A6C
:100350000D3A02EB820293409F430B6893401F4388
:10036000F7620A68072306680A2A0AD3F7680A3A76
:1003700002EB420293409F438B6893401F43F76018
:1003800008E0376902EB420293409F438B68934039
:100390001F4337610A68102A01D0112A20D1124B5D
:1003A00002689A4217D193681B0219D4936843F4E8
:1003B000000393600968102912D10C490C4A09689E
:1003C000B1FBF2F101EB8101490000E0491E00910F
:1003D0000029FBD104E0816A41F0200181620124FF
:1003E00080F824502046F8BD002401400C00002075
:1003F00040420F00704710B5044600684168890606
:1004000026D50168890723D5A16AC90603D4A16A44
:1004100041F40071A1628168C1F34241072910D102
:10042000217B71B9416821F020014160A06A20F46C
:100430008070A062A06AC00403D4A06A40F00100EA
:10044000A0622046FFF7D6FF21686FF01200086017
:100450002068416809062ED5016849072BD5A16A95
:10046000C90603D4A16A41F40051A1628168C1F3B5
:100470000231072909D04168490515D48168C1F3C3
:100480004241072910D1217B71B9416821F08001D7
:100490004160A06A20F48050A062A06AC00503D425
:1004A000A06A40F00100A0622046FFF724FF216807
:1004B0006FF00C0008602068416849060DD500689F
:1004C000C0070AD0A06A40F48030A062204600F045
:1004D00093F821686FF00100086010BD2DE9F0412C
:1004E0004FF0000704003D467ED0A06A002628B9E0
:1004F000E66284F82460204600F080F82046FFF78A
:10050000CDFEA16AC90600D420B1A06A40F0100057
:10051000A06269E0A16A21F4885141F00201A16260
:100520006268E169237B0A4347EA43010A43A16801
:100530004FF48077B94209D0012907D05FF000015C
:1005400094F814C0BCF1010F02D00AE03946F7E775
:10055000F3B1A36A43F02003A362E36A43F001030B
:10056000E3622368D3F804C02CF4694C4CEA010C14
:10057000C3F804C021688B68DFF870C003EA0C037D
:1005800013438B60A168B9420BD0012909D00CE05C
:10059000DFF85CC0A3690CEB43330B4343F4006109
:1005A000DFE7218A0D05A5F580152168CB6A23F4C4
:1005B00070032B43CB62216889680E4B194091422E
:1005C00008D1E662A16A21F0020141F00101A162B5
:1005D000BDE8F081A06A20F0020040F01000A062A7
:1005E000E06A40F00100E0620120F1E7FDF7E1FF81
:1005F00000E0FFFFFE0E1FFF7047000000B585B052
:1006000000210091019102910391006812498842F2
:1006100020D11248816941F400718161816901F43E
:1006200000710491816941F004018161806969462A
:1006300000F004000490012000900320019008487D
:1006400000F084F800221146122000F071FC122004
:1006500000F060FC05B000BD002401400010024025
:100660000008014010B590F821100022022905D0A1
:100670000421816380F82020012010BD01680B68EF
:1006800023F00E030B6001680B6823F001030B607D
:1006900090F84030C46B012101FA03F3636080F8E5
:1006A000211080F82020104610BD000010B590F8F1
:1006B00021100024022903D00421816301243DE09C
:1006C00001680A6822F00E020A6001680A6822F0D6
:1006D00001020A601A4A0168914201D1012121E018
:1006E000174A1432914201D110211BE0144A2832DA
:1006F000914201D1891515E0114A3C32914201D154
:1007000089140FE00E4A5032914202D14FF48031E9
:1007100008E00B4A6432914202D14FF4801101E0AB
:100720004FF08071064A083A5160012180F821108B
:10073000002180F82010416B01B18847204610BD90
:100740000800024090F82100704700002DE9F84FA2
:10075000DFF8B891002409F1040A0AF1040B2346DA
:100760000F270BF1040EC9E00125A5402A40AA423B
:100770007DD1674ED1F804C0ACEB0608B44532D049
:1007800014DCBCF1030F3AD009DCBCF1000F2AD015
:10079000BCF1010F1CD0BCF1020F31D11DE0BCF146
:1007A000110F17D0BCF1120F2AD119E0B8F5881F2C
:1007B00019D006DCB8F5803F15D0B8F5801F1FD1E1
:1007C00011E0B8F5001F0ED0B8F5041F18D10AE0EB
:1007D000CB6815E0CB681B1D12E0CB6808330FE037
:1007E000CB680C330CE08B682BB1012B4FF0080366
:1007F00003D0456104E0042302E0056100E000232A
:10080000FF2A01D8064601E000F104064FEA8405FC
:1008100001D9A5F12005D6F8008007FA05FC28EAE1
:100820000C0803FA05F548EA0508C6F800804D688B
:10083000ED0062D5374DAE6946F00106AE61AD6997
:1008400024F0030605F001050095334D06EB050C79
:10085000DCF80850A607360F07FA06F825EA08055F
:10086000DFF8B880404503D14FF0000817E044E0BE
:10087000DFF8AC80404502D14FF001080FE0DFF80F
:10088000A480404502D14FF0020808E0DFF89880CC
:10089000404502D14FF0030801E04FF0040808FA88
:1008A00006F848EA0508CCF808804D68D9F80060D9
:1008B000ED034D4601D5164300E096432E604D688A
:1008C000DAF80060AD03554601D5164300E09643C3
:1008D0002E604D68DBF80060ED025D4601D51643E1
:1008E00000E096432E604D68DEF80060AD0275466C
:1008F00001D5164300E096432E60641C0D682A461D
:10090000E5407FF431AFBDE8F88F000000040140FE
:1009100000001110001002400000014000080140DA
:10092000000C01400010014000140140C26821EA9F
:1009300002030A4043EA0241016170470AB10161C2
:1009400070470904FBE70000014880687047000019
:1009500000000020704770472DE9F041016804460F
:100960004A694E6890F83E000025D743FA050BD43B
:10097000F243D20508D46FF4807201254A612168E0
:100980000A6842F400420A60B90508D4F143C90577
:1009900005D422686FF4007145F0020551617905B4
:1009A00025D4F143C90522D4638D94F83D10226B00
:1009B000202808D13BB9212910D029290ED0282977
:1009C00001D1212A0AD022686FF48061516145F07B
:1009D0000405102806D0402804D008E0204601F085
:1009E00039FE04E02068016841F4007101603805B7
:1009F00008D4F043C00505D421686FF4006045F0C9
:100A000008054861002D07D0206C2843206420464B
:100A1000BDE8F04101F090BABDE8F0812DE9F04762
:100A2000026800215368C66A90F83E4090F83D5035
:100A3000102C12D0402C10D0046C002C7DD05469A6
:100A4000E443A6077AD4DE43B60577D4036C03B13A
:100A50009169BDE8F04701F0D9BD976951694FF43C
:100A60002A0CC9435FEAC1784FF02A4904D0664591
:100A70002AD04E4528D010E0DE43B6050DD4C16A19
:100A8000614501D1012103E0C16A494501D1082135
:100A9000C162BDE8F04701F023BD0E0716D4DE4366
:100AA000B60513D4416CC9B21161416B09B1896AB1
:100AB00029B9816B002907D0896A002904D0006810
:100AC000416841F400614160BDE8F0878E0706D4BB
:100AD000DE43B60503D4BDE8F04701F055BCFE4344
:100AE000526876074FEA02521DD4002AECDB0A0650
:100AF00008D4DA43520505D4490705D5BDE8F047C7
:100B000001F0E6BB4907DFD4D9438905DCD4212DA8
:100B100005D0402CD8D1BDE8F04701F027BDBDE895
:100B2000F04701F093BB002ACEDB4A060BD4DA4330
:100B3000520508D4490708D501E00DE00EE0BDE8F4
:100B4000F04701F00FBB4907BED4D9438905BBD498
:100B5000BDE8F04701F09CBA916970E7E10606D460
:100B6000D943890503D4BDE8F04701F0B5BD28217C
:100B7000212D27D0292D25D0650655D4DD436D05BF
:100B800052D4640752D590F83D30448D002C9BD050
:100B90001269446A2270426A521C4262428D521E9D
:100BA0004285428D002A8FD12A2B8DD1026853684D
:100BB00023F4806353602222026380F83D1000F02A
:100BC0004FF981E7250623D4DD436D0520D4640762
:100BD00020D590F83D30448D002CF2D0446A247822
:100BE0001461426A521C4262428D521E4285428DFD
:100BF000002AE6D1292BE4D10268536823F48063EC
:100C000053602122026380F83D1000F02AF95BE76F
:100C10006107D6D4D9438905D3D4418D0029D0D0DA
:100C2000416A097811610AE06107CAD4D94389058C
:100C3000C7D4418D0029C4D01169426A1170416A3C
:100C4000491C4162418D491E41853DE770470000C6
:100C500070B5040025D094F83D00002520B984F833
:100C60003C50204600F0BEF8242084F83D00206867
:100C7000016821F0010101602068016841F4004130
:100C800001602068016821F40041016000F08EFAE3
:100C90004D4A6168914201D84C4900E04C49884274
:100CA00001D2012070BD4B492368B0FBF1F15E68B1
:100CB00026F03F060E435E606368934206D94FF408
:100CC000967359434FF47A73B1FBF3F12368491CCF
:100CD0001E6A26F03F06314319626168914210D8BE
:100CE0004900401EB0FBF1F2521CC2F30B02042A71
:100CF00001D2042022E0B0FBF1F0401CC0F30B0055
:100D00001CE0A268F2B301EBC10303EB0116431E22
:100D1000B3FBF6F35B1C43F480431B0549D092B34D
:100D200001EBC10202EB0111401EB0FBF1F0401CCF
:100D3000C0F30B0040F4804040F400402168CA69D1
:100D40004CF6FF739A431043C861D4E9071001437E
:100D50002068026822F0C00211430160D4E9030157
:100D600001432068826848F2FF339A43114381604F
:100D7000D4E9050108432168CA6822F0FF02104344
:100D8000C86001E00EE016E02068016841F0010152
:100D900001602564202084F83D00256384F83E50DE
:100DA000002070BD01EB4106431EB3FBF6F35B1C54
:100DB000B3E70120C2E701EB4101401EB0FBF1F0B7
:100DC000401CC0F30B00B7E7A086010080841E0022
:100DD00000093D0040420F00704770477047704760
:100DE0007047000010B586B000210091019102917A
:100DF00003910068174988422AD1174CA06940F036
:100E00000800A061A069694600F008000490C020B5
:100E1000009012200190032003901048FFF796FCE9
:100E2000E06940F40010E061E069002200F4001085
:100E3000049011461F2000F07BF81F2000F06AF894
:100E400000221146202000F073F8202000F062F804
:100E500006B010BD0054004000100240000C0140DC
:100E6000704770470248816802781144816070477A
:100E700000000020074810B5016841F01001016032
:100E8000032000F075F80F2000F006F800F024F8B9
:100E9000002010BD0020024070B50D4D04464FF4F7
:100EA0007A712878B1FBF0F00A490968B1FBF0F0DB
:100EB00000F06EFC48B9102C07D200222146501ECB
:100EC00000F036F800206C6070BD012070BD00009D
:100ED000000000200C0000200C4808B5816941F09A
:100EE00001018161816901F001010091C16941F055
:100EF0008051C161C06900F0805000900448416891
:100F000021F0E06141F00071416008BD0010024035
:100F100000000140002809DB00F01F020121914080
:100F20004009800000F1E020C0F800117047000087
:100F3000F0B40E4B1B680C46C3F30223C3F1070544
:100F4000042D00D90425191D072901D2002300E032
:100F5000DB1E012606FA05F1491E214099409E40FC
:100F6000761E16403143F0BC01F0AFBE0CED00E040
:100F7000064900F0070208684FF6FF03184040EAF0
:100F80000220034A10430860704700000CED00E0A7
:100F90000000FA052DE9F84305460078354CC007F6
:100FA00054D0E0690026C00008D4E06940F08050C9
:100FB000E061E069012600F0805000902E48016851
:100FC000C90512D40168804641F480710160FFF7C1
:100FD000BBFC074605E000BFFFF7B6FCC01B64285A
:100FE00023D8D8F80000C005F6D5206A10F4407068
:100FF00021D0A98801F4407181421CD0206A1F4988
:10100000012220F440700A6000220A602062C007BA
:1010100011D0FFF799FC074641F2883808E000BF7D
:10102000FFF792FCC11B414502D90320BDE8F883BC
:10103000206A8007F4D5206A696820F4407008436C
:1010400020621EB1E06920F08050E06128788007BE
:1010500005D56068A96820F440400843606028789E
:10106000C00605D56068E96820F480000843606028
:101070000020DBE7001002400070004040044242C4
:101080002DE9F0470F46050061D0434E306800F06F
:101090000700B84209D2306820F0070038433060BA
:1010A000306800F00700B84251D128683B4C8107F6
:1010B00012D5400703D5606840F4E060606028788E
:1010C000000703D5606840F4605060606068A968FC
:1010D00020F0F000084360602878C00728D06868D6
:1010E000012810D02168022810D0890700292EDAA3
:1010F000616821F0030101436160FFF725FC804630
:1011000041F288390DE021688903EFE78901EDE7B5
:10111000FFF71AFCA0EB0801494502D90320BDE8FE
:10112000F0876068696800F00C00B0EB810FEFD1C8
:10113000306800F00700B8420BD9306820F0070093
:1011400038433060306800F00700B84201D0012019
:10115000E5E72878400705D56068E96820F4E06095
:10116000084360602878000706D56068296920F484
:10117000605040EAC100606000F038F86168084AD9
:10118000C1F30311515CC840064908600648006875
:10119000FFF782FE0020C2E700200240001002405C
:1011A0006C2D00080C0000200400002004480549B4
:1011B00000684968044AC1F30221515CC840704785
:1011C0000C000020001002407C2D00080448054956
:1011D00000684968044AC1F3C221515CC8407047A5
:1011E0000C000020001002407C2D000812A185B0E8
:1011F0000FC98DE80F0014A0144A006804905168CC
:10120000134801F00C03042B10D0082B0ED1C1F3AE
:101210008343C9031DF803000AD5516804AAC1F32A
:101220004041515C0A4A5043B0FBF1F005B07047B1
:1012300008494843FAE700000203040506070809C5
:101240000A0B0C0D0E0F10100102000000100240DE
:1012500000127A0000093D002DE9F84F040070D01B
:101260002078C04DC00749D06868C0F381000128CC
:1012700007D06868C0F38100022809D16868C003FC
:1012800006D52868800339D560680028E7D035E0A6
:101290006068B0F5803F0BD010B1B0F5A02F11D031
:1012A000286820F480302860286820F4802002E03C
:1012B000286840F480302860606890B1FFF744FBF4
:1012C00006460AE0286840F480202860F0E700BF66
:1012D000FFF73AFB801B642873D828688003F7D592
:1012E0000CE0FFF731FB064605E000BFFFF72CFBE3
:1012F000801B6428F0D828688003F7D420789A4EA1
:1013000080074FF001094FF0000839D5686810F0E8
:101310000C0F07D06868C0F38100022809D1686803
:10132000C00306D42868800714D52069012808D195
:1013300010E02069B0B1C6F80090FFF705FB074642
:1013400005E00AE1FFF700FBC01B0228C4D82868AB
:101350008007F7D52868616920F0F80040EAC100ED
:1013600028600DE0C6F80080FFF7EEFA074604E0BB
:10137000FFF7EAFAC01B022823D828688007F7D4B1
:10138000207800072CD57948A169D9B1C0F8009020
:10139000FFF7DAFA074604E0FFF7D6FAC01B022887
:1013A0000FD8686A8007F7D571484FF4FA51006882
:1013B000B0FBF1F0009000BF0098411E0091FAD2FE
:1013C0000EE080E0C0F80080FFF7BEFA074604E0B8
:1013D000FFF7BAFAC01B022875D8686A8007F7D4ED
:1013E0002078400760D5E8690027C00008D4E86984
:1013F00040F08050E861E869012700F080500090DB
:101400005C480168C90513D40168834641F48071C2
:101410000160FFF799FA824606E000BFFFF794FAF1
:10142000A0EB0A0064284ED8DBF80000C005F5D513
:10143000E06801280AD008B1052813D0286A20F0F6
:1014400001002862286A20F0040002E0286A40F0C7
:1014500001002862E06841F2883B98B1FFF774FA16
:1014600082460BE0286A40F004002862EEE700BFE5
:10147000FFF76AFAA0EB0A0159455AD8286A800793
:10148000F6D50CE0FFF760FA824605E0FFF75CFA5C
:10149000A0EB0A0159454CD8286A8007F6D41FB141
:1014A000E86920F08050E861E06988B36968C1F3B9
:1014B0008101022944D00228C6F8608004D0FFF7D9
:1014C00043FA044638E034E0FFF73EFA074604E00A
:1014D000FFF73AFAC01B02282BD828688001F7D4FE
:1014E000206AB0F5803F05D16868A16820F400301B
:1014F00008436860D4E908010843696821F474115D
:1015000008436860C6F86090FFF71EFA044606E0DC
:1015100025E000BFFFF718FA001B022809D8286849
:101520008001F7D51BE000BFFFF70EFA001B022871
:1015300002D90320BDE8F88F28688001F4D40EE0BA
:101540000128F7D06868226A00F48031914204D102
:10155000616A00F47010884201D00120EAE700209F
:10156000E8E70000001002400000424280044242CE
:101570000C000020007000407047000038B50446A1
:10158000006842688168C9434B0606D5CB0704D181
:10159000D3435B0601D4216C05E08B0708D4D34309
:1015A0001B0605D4616C01B02046BDE830400847F9
:1015B0008B0601D54B0646D4D3439B0643D44B063A
:1015C0000AD494F85130032B3ED0636D43F00403EA
:1015D0006365C36883680093890609D4616D41F02F
:1015E0000101616581680091016821F0400101609D
:1015F000606D002827D02068416821F0E00141603B
:10160000012084F85100900722D02068416821F021
:1016100003014160104DE06C40B14563E06CFFF7A1
:1016200045F818B1606D40F040006065A06C00287E
:1016300009D04563A06CFFF739F8002803D0606D2E
:1016400040F04000606538BDC1688068009038BDDA
:101650002046FFF791FF38BDAD29000870B50400A2
:1016600009D0606A002540B125616561A56294F8E2
:10167000510040B10CE0012070BD6068B0F5827F80
:10168000F4D0E561F2E784F85050204600F040F8CD
:10169000022084F851002068016821F040010160B7
:1016A000A088218900F4827001F404410843A189D3
:1016B00001F400610843217C01F002010843217D0F
:1016C00001F001010843218B01F400710843217FDF
:1016D00001F03801084394F8201001F0800108431C
:1016E000218D01F40051084321680860A06904219C
:1016F00001EA1040216848602068C16921F4006156
:10170000C1616565012084F85100002070BD0000B2
:1017100030B585B0002400940194029403940068CD
:10172000184988422BD11848816941F48051816160
:10173000816901F480510491816941F00401816162
:101740008069124D00F004000490B0200090022047
:1017500001900320039069462846FEF7F7FF4020DA
:10176000CDE90004694628460294FEF7EFFF002207
:1017700011462320FFF7DCFB2320FFF7CBFB05B04E
:1017800030BD000000300140001002400008014060
:1017900010B5401EB0F1807F01D3012010BD4FF085
:1017A000E02460610F21601701F08FFA0020A06132
:1017B00007202061002010BD7047704770B590F879
:1017C0003C20012A26D0012480F83C40022280F8E7
:1017D0003D2003685A689D6822F070060A6832430B
:1017E0005A600D4B02689A4208D0B2F1804F05D082
:1017F0000A4B9A4202D00A4B9A4204D1496825F01A
:1018000080031943916080F83D40002180F83C102E
:10181000084670BD022070BD002C0140000400404D
:101820000008004010B5040003D094F83D0010B14A
:1018300007E0012010BD002084F83C00204600F0A5
:101840001FF8022084F83D00211D206801F0F4F803
:10185000012084F8460084F83E0084F83F0084F8B4
:10186000400084F8410084F8420084F8430084F882
:10187000440084F8450084F83D00002010BD0000BD
:1018800008B50068B0F1804F12D10A48C16941F033
:101890000101C161C069002200F001000090114601
:1018A0001C20FFF745FBBDE808401C20FFF732BBBA
:1018B00008BD00000010024090F83D10012901D041
:1018C00001207047022180F83D100168CA6842F08B
:1018D0000102CA6000680B49884208D0B0F1804F0D
:1018E00005D00949884202D00849884204D181685C
:1018F00001F00701062903D0016841F001010160F0
:1019000000207047002C0140000400400008004007
:1019100070B5044690F83C00012817D0012584F8E2
:101920003C50022084F83D002068826822F0770253
:1019300022F47F4282600868502830D00DDC2028D5
:101940004DD005DC98B310283BD148E0022070BD93
:10195000302844D0402834D139E0602828D070287D
:1019600006D0B0F5805F2CD0B0F5005F29D10AE039
:10197000CB68D1E90121206801F094F820688168E2
:1019800041F0770109E0CB68D1E90121206801F03D
:1019900089F82068816841F48041816011E0CA685B
:1019A0004968206801F090F85021206807E016E0AF
:1019B000CA684968206801F098F86021206801F041
:1019C0007BF884F83D50002084F83C0070BDCA6864
:1019D0004968206801F078F840212068EFE7226824
:1019E00001461046EBE7704770B504460068016990
:1019F0004FF00005C943890715D4C168C943890759
:101A000011D4E91E016101202077206880698007D8
:101A1000204602D0FFF7E7FF04E000F098F82046E8
:101A200000F096F8257720680169C943490717D463
:101A3000C168C943490713D46FF004010161022052
:101A400020772068806910F4407F204602D0FFF79D
:101A5000CAFF04E000F07BF8204600F079F8257713
:101A600020680169C943090716D4C168C943090739
:101A700012D46FF008010161042020772068C0694A
:101A80008007204602D0FFF7AEFF04E000F05FF8C9
:101A9000204600F05DF8257720680169C943C90632
:101AA00017D4C168C943C90613D46FF0100101618E
:101AB000082020772068C06910F4407F204602D0BB
:101AC000FFF791FF04E000F042F8204600F040F8F4
:101AD000257720680169C943C90708D1C168C9438E
:101AE000C90704D1891E0161204600F033F820683F
:101AF0000169C943090609D4C168C943090605D467
:101B00006FF0800101612046FFF756FE20680169F1
:101B1000C943490609D4C168C943490605D46FF0D1
:101B200040010161204600F01DF820680169C943A9
:101B300089060BD4C168C943890607D46FF0200118
:101B400001612046BDE87040FFF737BE70BD7047A9
:101B5000704700004FF400510148FEF7E7BE000057
:101B6000001001407047704770470000F8B50268E8
:101B700004461068D168536910F00F0F4FF000054C
:101B800053D003F0010601F4907737435FD0C207CA
:101B900005D0CA0503D5226C42F001022264420737
:101BA00005D5DA0703D0226C42F0020222648207D4
:101BB00005D5DA0703D0226C42F004022264020742
:101BC00007D501F02002324303D0226C42F0080214
:101BD0002264226C002A34D0800604D5880602D5FF
:101BE000204600F0B4FF20684069216CC0F38010EB
:101BF000090700D430B3204600F091FF2068416906
:101C000049061BD5416921F040014161A06BA8B193
:101C100058494163A06BFEF749FD002811D0A06B25
:101C2000416B01B0BDE8F040084783060FD58B0635
:101C30000DD52046BDE8F84000F089BF2046FFF7EB
:101C400093FFF8BD2046FFF78FFF2564F8BD266B94
:101C50002023012E52D1C60650D5CE064ED510688F
:101C600050680090506940062AD5A16B086840680A
:101C70000004000CEAD0A68D8642E7D9E085886989
:101C8000202818D0D06820F48070D0602068416986
:101C900021F0010141612068416921F04001416169
:101CA00084F83E3025632068C16821F01001C160CE
:101CB000A06BFEF7D7FCA08DE18D401A81B219E030
:101CC000A08DE18D401A81B2E08D0028BED00029A0
:101CD000BCD0D06820F49070D0602068426922F0B7
:101CE0000102426184F83E3025632068C26822F018
:101CF0001002C2602046FFF736FFF8BD05062BD55F
:101D00000D0629D594F83D002128F6D1A068B0F53C
:101D1000805F01D12069B0B1206A411C2162216835
:101D200000784860E08C401E0004000CE084E4D1A0
:101D30002068C16821F08001C1602068C16841F05D
:101D40004001C160F8BD206A0088C0F308005060FF
:101D5000206A801C2062E5E74006F3D54806F1D5ED
:101D6000D168204621F04001D16084F83D3000F078
:101D700076F8F8BD0F2B000870B5040004D094F875
:101D80003D00002510B106E0012070BD84F83C50F4
:101D9000204600F023F8242084F83D002068C16824
:101DA00021F40051C160204600F02CFF2068016939
:101DB00021F4904101612068416921F02A014161CB
:101DC0002068C16841F40051C1602564202084F876
:101DD0003D0084F83E00002070BD000030B585B0A5
:101DE00000240094019402940394006818498842E6
:101DF0002CD11848816941F480418161816901F4E5
:101E000080410491816941F0040181618069124D32
:101E100000F0040004904FF4007000900220019044
:101E20000320039069462846FEF790FC2815CDE96B
:101E30000004694628460294FEF788FC00221146F9
:101E40002520FFF775F82520FFF764F805B030BDB1
:101E50000038014000100240000801407047704700
:101E6000FEE700000148FEF777BD000040000020BB
:101E70000148FEF7D3BD00004000002038B5406A9D
:101E8000002190F83D202B4B46F2A8141B68B3FBB1
:101E9000F4F3C3EBC30303EB830300933BB15B1E7B
:101EA000009303681B689B0505D5009BF6E7036C50
:101EB00043F020030364436B03B19962836B03B166
:101EC000996203681C6824F480641C604185436B3C
:101ED00003B15963836B03B1596303681C6824F031
:101EE00001041C6090F83D402023602C0BD0282476
:101EF00034EA02020FD080F83D3080F83E1000BF77
:101F0000FEF7A4FE38BD80F83D3080F83E10016435
:101F1000FEF720FD38BD0268136843F0010313602B
:101F20000268136843F480631360016380F83D40E6
:101F3000E6E700000C00002070B5044690F83D0074
:101F400094F83E10102901D0402906D1222804D14E
:101F500021680A6822F400620A60282131EA00023E
:101F60004FF000054FF0200626D02168496809058A
:101F700005D4602803D084F83D6084F83E50256382
:101F800020684168090537D5416821F40061416046
:101F9000606B3D4990F82120012A11D04163606BAC
:101FA000FEF784FB38B32068016821F0010101606D
:101FB00084F83D60606B1CE0256384F83D10DFE72A
:101FC000A06B4163A06BFEF771FBA0B12068416973
:101FD000C943490605D40069616A0870606A401CFB
:101FE00060622068016821F00101016084F83D60B1
:101FF000A06B416B884710E094F83D10602910D029
:102000004169C943490605D40069616A0870606A7C
:10201000401C60622046FEF719FE206CC1071CD1EF
:1020200015E084F83D6025644169C943490605D43B
:102030000069616A0870606A401C6062206801681B
:1020400021F0010101602046FEF784FCE5E78107ED
:1020500003D4410701D4000704D52068416821F466
:10206000E061416094F83D00216C49070BD52828B8
:1020700009D10648E062256384F83D6084F83E504B
:102080002046FEF7A9FE70BD7D1E00080000FFFF80
:1020900010B5C26A438D0168042B06D0438D032B13
:1020A00008D0438D022B1DD012E04A6822F48062D2
:1020B0004A600CE04B6823F480634B60042A06D02E
:1020C000022A04D001680A6822F480620A6001686A
:1020D0000969426A1170416A491C4162418D491E79
:1020E000418510BD012A30D0102A2ED0042A30D0CC
:1020F000022A2ED00A6842F400720A600168096957
:10210000426A1170416A491C4162428D521E4285E9
:10211000026812690A70416A491C4162418D491E78
:10212000418501684A6822F440724A60202180F8A3
:102130003D1090F83E200021402A80F83E100CD03F
:1021400012210163FEF749FE10BD0A6822F4806285
:10215000D3E70A6842F48062CFE70163FEF73FFEEF
:1021600010BD000038B590F83D10222914D1418DE2
:10217000032912D901680969426A1170416A491C30
:102180004162418D491E4185418D032904D100687A
:10219000416821F48061416038BDC26A022AFBD0E7
:1021A000012901D00029F7D1274946F2A8130022BE
:1021B0000968B1FBF3F101EB810100910168202373
:1021C000009C641E009422D00C68A405F8D40C680E
:1021D00024F480640C6001684C6824F4E0644C6072
:1021E00001680969446A2170416A491C4162418D54
:1021F000491E418580F83D3090F83E1080F83E2021
:1022000040291DD012210163FEF7E7FD38BD046CA3
:1022100044F0200404644C6824F4E0644C600168D9
:102220000969446A2170416A491C4162418D491E15
:10223000418580F83D3080F83E20FEF707FD38BD2F
:102240000263FEF7CCFD38BD0C00002010B5C26A59
:1022500090F83D1021290BD1418D51B1416A02689E
:1022600009781161416A491C4162418D491E4185CD
:1022700010BD20230021082A13D0202A11D012F5E6
:10228000803F0ED00268546824F4E0645460112248
:10229000026380F83E1080F83D3000BFFEF79EFDDF
:1022A00010BD0268546824F4E06454600268146845
:1022B00044F400741460016380F83D3090F83E20CF
:1022C00080F83E10402AE9D1FEF78AFD10BD0000DB
:1022D00010B590F83D1090F83E30C26A048DB4B14C
:1022E000212903D0402B11D122290FD1418DE1B3F7
:1022F00090F83E10402942D0416A02680978116185
:10230000416A491C4162418D491E418510BD212908
:10231000E8D120230021082A13D0202A11D012F559
:10232000803F0ED00268546824F4E06454601122A7
:10233000026380F83E1080F83D3000BFFEF74EFD8E
:1023400010BD0268546824F4E064546002681468A4
:1023500044F400741460016380F83D3090F83E202E
:1023600080F83E10402AE9D100E002E0FEF738FD97
:1023700010BD0068416821F48061416010BDBDE876
:10238000104000F0F3B8000078B590F83E50C26AF3
:10239000046B90F83D6000230168222E73D1066D16
:1023A0000EB9402D6FD0056D1DB90569B5F5404FCB
:1023B0001BD0458D95B3468D484D012E20D0448DC0
:1023C000022C4DD00C6844F480640C6001684C68A9
:1023D000240579D5AA4273D0012A71D0082A6FD07A
:1023E000102A6DD0202A6BD06EE04A698A6900926B
:1023F0000A6842F480720A60016D491C016578BD6B
:10240000AA4214D10A6822F480620A6001684A680C
:10241000120504D50A6822F4806217E0FFE74A69D2
:102420008A6900920A6842F400720A6050E0082A41
:1024300010D0202A0ED0122C0AD0042A03D0022A4F
:1024400001D0102AE6D10A6842F480620A603BE0BB
:10245000012ADFD00A6822F480620A600168DEE7A0
:10246000042A11D0022A0FD0102A0DD00C6844F48F
:1024700000640C6001684C698C6900940C6824F459
:1024800080640C6008E025E00C6844F480640C6013
:1024900001684C698969009101684C68240517D569
:1024A000AA4207D0012A05D0082A03D0102A01D059
:1024B000202A0DD14A6842F480524A6008E0FFE7C2
:1024C0004A6842F480524A6001684A698969009109
:1024D000036578BD48698869009078BD0000FFFFFA
:1024E00090F83E10402910D00169B1F5804F19D005
:1024F000016DA9B3016D012910D1416C5FF0F102AA
:1025000001F4407142EAD11106E0016D0029416CED
:1025100005D0C9B241F0010100680161704701F0C6
:10252000FE01F9E790F83D102129416C09D0C9B2AC
:1025300041F0010102681161416B29B1896A49B911
:1025400002E001F0FE01F5E7816B0029E6D0896A1F
:102550000029E3D00068416841F4006141607047A0
:10256000FFE7416CF02201F44071CBE710B590F821
:102570003D10026D22B3026D012A2FD0026D022A96
:102580001DD122292FD0428D0AB1212933D0428D6D
:10259000002A14D1212912D101684A6822F4E0628C
:1025A0004A6001680A6842F400720A60002101630F
:1025B000202280F83D2080F83E10FEF711FC10BD6F
:1025C000C16C0129816C02D0C1F3072108E00268C7
:1025D000C9B21161016D891C016510BD816CC9B260
:1025E0000268116104E001680A6842F480720A60BE
:1025F000016D491CF0E7416A026809781161416A7E
:10260000491C4162418D491E418510BD38B50C46BB
:1026100090F83D2000212825954302680B4605D0FF
:1026200051699169009180F83C3038BD556825F4B6
:1026300080655560E243540700D50121120601D59B
:10264000828900E0028B80F83C3092B2FEF783F979
:1026500038BD00002DE9F04190F83D40C26A0023EA
:1026600020261C4F01686FF48065082A01D0202ABB
:1026700001D1282C04D0212C16D04D61BDE8F08169
:10268000C7624A6822F4E0624A6001684D610168ED
:102690000A6822F480620A60036380F83D6080F873
:1026A0003E30FEF799FBE9E7C7622122026380F81A
:1026B0003D6080F83E304A6822F4E0624A6001687A
:1026C0004D6101680A6822F480620A60FEF7C9FB66
:1026D000D4E700000000FFFFF8B590F83D60044625
:1026E0000068416821F4E06141602068002541698B
:1026F0000091016841F0010101602068016821F446
:102700008061016020684168090520D5474F222E6D
:1027100048D02A2E46D0616B096849686185618D71
:1027200019B1216C41F004012164416821F4006178
:102730004160606BFEF706F8012808D0606B4763C4
:10274000606BFDF7B3FF10B1606B416B8847608D24
:1027500008B320684169C943490708D40069616A20
:102760000870606A401C6062608D401E6085206851
:102770004169C943490608D40069616A0870606A02
:10278000401C6062608D401E6085608D18B1206CB9
:1027900040F004002064206C00B32046BDE8F840FF
:1027A000FFF7CABBA16B096849686185618D19B1E2
:1027B000216C41F004012164416821F40061416011
:1027C000A06BFDF7BFFF0128C1D0A06B4763A06BD2
:1027D000FDF76CFF0028BAD0A06BB6E72A2E06D111
:1027E0002563282084F83D002046FEF739FB94F845
:1027F0003D10202028290DD0216B222901D0222E26
:1028000007D1256384F83D0084F83E502046FEF74A
:1028100027FBF8BD0649E162256384F83D0084F892
:102820003E502046FEF7D8FAF8BD00007D1E000895
:102830000000FFFF3EB5002410480094019402946C
:102840000D498460016004730475012505614FF42E
:1028500060214460C161FDF741FE08B172B6FEE738
:10286000CDE90045694605480294FDF745FD00287D
:1028700001D072B6FEE73EBD0024014010000020EA
:1028800070B586B000241848009401940294039413
:10289000816941F010018161816901F010010491A9
:1028A000816941F004018161816901F004010491B1
:1028B000816941F00801816180690C4E00F00800D7
:1028C0004FF400550490002229463046FEF736F8B2
:1028D00001200095CDE901040220039069463046AD
:1028E000FDF734FF06B070BD00100240001001403B
:1028F0000E4810B50C4901604FF48271416000210F
:102900008160C1604FF480220161C0E90512C1619C
:102910000162416281620A21C162FEF79FFE0028C6
:1029200001D072B6FEE710BD0030014094000020D7
:1029300010B586B0002417480094019402940394C3
:1029400004944FF08041059401604FF4FA51C0E9BE
:10295000011440F2F311C0E9031480218161FEF7F4
:1029600061FF08B172B6FEE74FF4805000906946EF
:102970000848FEF7CDFF08B172B6FEE7049404A93B
:1029800004480594FEF71AFF002801D072B6FEE74E
:1029900006B010BDEC000020FEE7FEE77047000027
:1029A0000148FEF7EBBD00009400002010B5406A1E
:1029B0000021C187C186FEF7DFFD10BD7047FEF71D
:1029C00051BA30B593B028216846FDF7FDFB1421BC
:1029D0000AA8FDF7F9FB002401200F9402250490BA
:1029E0000095102011940590109412940794684655
:1029F000FEF732FC08B172B6FEE70F20CDE90A04FB
:102A00000C940D9400210AA80E94FEF739FB08B12E
:102A100072B6FEE70FA80F951194FEF7BBFA0028D7
:102A200001D072B6FEE713B030BD70470148FEF723
:102A3000DBBF0000EC000020F0B50268164B174C1D
:102A4000174D4FF08047984205D0B84203D0A042BE
:102A500001D0A84203D122F070064A68324398425E
:102A600005D0B84203D0A04201D0A84203D122F43D
:102A70004074CA6822434C6922F0800222430260FB
:102A80008A68C2620A688262984201D10969016358
:102A900001214161F0BD0000002C01400004004014
:102AA0000008004010B5846842EA032224F47F4401
:102AB0000A432243826010BD826822F070020A43FA
:102AC00042F007018160704710B5036A046A24F080
:102AD00001040462846924F0F00444EA021423F03F
:102AE0000A020A438461026210BD10B5036A23F032
:102AF000100303628369046A23F4704343EA0232D9
:102B000024F0A00343EA01118261016210BD10B5F7
:102B1000406A0021C185C184FFF726F810BD016815
:102B2000CA6822F49072CA6001684A6922F0010200
:102B30004A61016B012904D10168CA6822F01002C0
:102B4000CA60202180F83E1000210163704708B55B
:102B500090F83E10222901D0022008BD82684FF46F
:102B600080539A4201D1016921B1816A9A421BD0F6
:102B70004AB10AE00268816A5268C2F308020A8018
:102B8000816A891C08E0026972B10268526802F029
:102B90007F020A70816A491C8162C18D491E090445
:102BA000090CC18503D019E002685268F1E7016899
:102BB000CA6822F02002CA600168CA6822F48072E2
:102BC000CA6001684A6922F001024A61202180F846
:102BD0003E10016B012903D0FFF740F9002008BD2A
:102BE000002101630168CA6822F01002CA6001680E
:102BF0000A68D20602D50A6849680091818DFEF7FD
:102C0000B2FFEBE770B5044600680169E26821F4A1
:102C10004051114301612169A0680843616908437B
:102C20002168CA6841F20C639A430243CA60206873
:102C30004169A26921F44071114341611E49206834
:102C4000884202D1FEF7C2FA01E0FEF7AFFA00EBCC
:102C5000C00101EB0012606864218000B2FBF0F358
:102C6000B3FBF1F36FF018067343B2FBF0F5B2FB60
:102C7000F0F605EB8305322303EB0515B5FBF1F503
:102C8000B6FBF1F605F0F00505EB0615B2FBF0F624
:102C9000B2FBF0F0B0FBF1F06FF01802504306EB1E
:102CA000800003EB0010B0FBF1F0216800F00F0092
:102CB0002844886070BD0000003801400148FEF7DC
:102CC00055BF000034010020FEE70907090E002867
:102CD00004DB00F1E02080F80014704700F00F00E2
:102CE00000F1E02080F8141D70470000FEF7C2F8E4
:102CF000FFF767FEFFF7C4FDFFF79CFD1848174973
:102D0000002401601749C0E901144FF48041C0E973
:102D1000034144618461C4610462FDF799FF08B115
:102D200072B6FEE7FFF7E4FD0D480F49F43001608D
:102D30004FF4E131C0E901140C21C460C0E9044141
:102D40008461C461FFF718F808B172B6FEE7FFF7B7
:102D5000EFFD0348AC30FEF7AFFDFEE70054004046
:102D600040000020A0860100003801400000000063
:102D7000000000000102030406070809000000002B
:102D800001020304A42D0008000000201000000030
:102D900028010008B42D000810000020C80700001A
:102DA00044010008010000001000000000000000C5
:042DB0000024F40007
:04000005080000ED02
:00000001FF
