:020000040800F2
:100000007016002021020008D31900088D10000886
:10001000D11900088B030008471A000800000000EF
:10002000000000000000000000000000890100083E
:100030008D03000800000000CD010008DD19000854
:100040003B0200083B0200083B0200083B0200089C
:100050003B0200083B0200083B0200083B0200088C
:100060003B0200083B0200083B0200083B0200087C
:100070003B0200083B0200083B0200083B0200086C
:100080003B0200083B0200083B0200083B0200085C
:100090003B0200083B0200083B0200083B0200084C
:1000A0003B0200083B0200083B0200083B0200083C
:1000B0003B0200083B0200083B02000891100008C8
:1000C0003B0200083B0200083B0200083B0200081C
:1000D0003B0200083B0200083B0200083B0200080C
:1000E0003B0200083B0200083B02000800F002F857
:1000F00000F03AF80AA090E8000C82448344AAF188
:100100000107DA4501D100F02FF8AFF2090EBAE885
:100110000F0013F0010F18BFFB1A43F0010318473B
:10012000D0240000F0240000103A24BF78C878C121
:10013000FAD8520724BF30C830C144BF04680C60ED
:10014000704700000023002400250026103A28BF35
:1001500078C1FBD8520728BF30C148BF0B60704739
:100160001FB51FBD10B510BD00F0D6F81146FFF742
:10017000F7FF01F079FC00F0F4F803B4FFF7F2FFA9
:1001800003BC00F0FBF80000224B19680868B0E8D7
:10019000F00F80F30988BFF36F8F4FF0000080F3FA
:1001A00011884EF00D0E70470000000006480068F0
:1001B000006880F3088862B661B6BFF34F8FBFF363
:1001C0006F8F00DF00BF00BF08ED00E0EFF3098094
:1001D000BFF36F8F0F4B1A6820E9F00F106008B55E
:1001E0004FF0500080F31188BFF34F8FBFF36F8F34
:1001F00002F01AF84FF0000080F31188BDE80840C3
:1002000019680868B0E8F00F80F30988BFF36F8FB2
:10021000704700BF14000020EFF305807047000016
:100220000948804709480047FEE7FEE7FEE7FEE78A
:10023000FEE7FEE7FEE7FEE7FEE7FEE704480549C6
:10024000054A064B70470000451A0008ED000008FB
:100250007010002070160020701200207012002014
:1002600010B5203AC0F00B80B1E81850203AA0E851
:100270001850B1E81850A0E81850BFF4F5AF5FEA85
:10028000027C24BFB1E81850A0E8185044BF18C938
:1002900018C0BDE810405FEA827C24BF51F8043BDF
:1002A00040F8043B08BF7047D20728BF31F8023B33
:1002B00048BF11F8012B28BF20F8023B48BF00F8C7
:1002C000012B70474FF0000200B513469446964646
:1002D000203922BFA0E80C50A0E80C50B1F1200159
:1002E000BFF4F7AF090728BFA0E80C5048BF0CC007
:1002F0005DF804EB890028BF40F8042B08BF704765
:1003000048BF20F8022B11F0804F18BF00F8012BD6
:100310007047704770477047754600F02BF8AE463F
:1003200005006946534620F00700854618B020B501
:10033000FFF784FFBDE820404FF000064FF00007B4
:100340004FF000084FF0000B21F00701AC46ACE87D
:10035000C009ACE8C009ACE8C009ACE8C0098D46EA
:10036000704710B50446AFF300802046BDE810404A
:10037000FFF703BF004870470C1000200149182008
:10038000ABBEFEE7260002007047FEE770470000A4
:1003900010B590F821100024022903D004218163B4
:1003A00001243DE001680A6822F00E020A6001683B
:1003B0000A6822F001020A601A4A0168914201D1DA
:1003C000012121E0174A1432914201D110211BE092
:1003D000144A2832914201D1891515E0114A3C3264
:1003E000914201D189140FE00E4A5032914202D15C
:1003F0004FF4803108E00B4A6432914202D14FF44D
:10040000801101E04FF08071064A083A51600121E5
:1004100080F82110002180F82010416B01B188473D
:10042000204610BD0800024090F8210070470000EF
:100430002DE9F84FDFF8B891002409F1040A0AF118
:10044000040B23460F270BF1040EC9E00125A5403C
:100450002A40AA427DD1674ED1F804C0ACEB060811
:10046000B44532D014DCBCF1030F3AD009DCBCF146
:10047000000F2AD0BCF1010F1CD0BCF1020F31D10A
:100480001DE0BCF1110F17D0BCF1120F2AD119E0F9
:10049000B8F5881F19D006DCB8F5803F15D0B8F53F
:1004A000801F1FD111E0B8F5001F0ED0B8F5041F52
:1004B00018D10AE0CB6815E0CB681B1D12E0CB68B1
:1004C00008330FE0CB680C330CE08B682BB1012BA9
:1004D0004FF0080303D0456104E0042302E0056106
:1004E00000E00023FF2A01D8064601E000F10406DF
:1004F0004FEA840501D9A5F12005D6F8008007FA56
:1005000005FC28EA0C0803FA05F548EA0508C6F8D0
:1005100000804D68ED0062D5374DAE6946F00106AA
:10052000AE61AD6924F0030605F001050095334D79
:1005300006EB050CDCF80850A607360F07FA06F89C
:1005400025EA0805DFF8B880404503D14FF00008E0
:1005500017E044E0DFF8AC80404502D14FF00108DD
:100560000FE0DFF8A480404502D14FF0020808E018
:10057000DFF89880404502D14FF0030801E04FF0CA
:10058000040808FA06F848EA0508CCF808804D681F
:10059000D9F80060ED034D4601D5164300E09643BF
:1005A0002E604D68DAF80060AD03554601D516435C
:1005B00000E096432E604D68DBF80060ED025D467A
:1005C00001D5164300E096432E604D68DEF80060CA
:1005D000AD02754601D5164300E096432E60641CBB
:1005E0000D682A46E5407FF431AFBDE8F88F000082
:1005F0000004014000001110001002400000014002
:1006000000080140000C01400010014000140140AE
:100610000AB1016170470904FBE7000001488068E6
:100620007047000004000020704770472DE9F04734
:10063000026800215368C66A90F83E4090F83D5029
:10064000102C12D0402C10D0046C002C7DD054699A
:10065000E443A6077AD4DE43B60577D4036C03B12E
:100660009169BDE8F04701F0E1B8976951694FF42D
:100670002A0CC9435FEAC1784FF02A4904D0664585
:100680002AD04E4528D010E0DE43B6050DD4C16A0D
:10069000614501D1012103E0C16A494501D1082129
:1006A000C162BDE8F04701F02BB80E0716D4DE4357
:1006B000B60513D4416CC9B21161416B09B1896AA5
:1006C00029B9816B002907D0896A002904D0006804
:1006D000416841F400614160BDE8F0878E0706D4AF
:1006E000DE43B60503D4BDE8F04700F05DBFFE432E
:1006F000526876074FEA02521DD4002AECDB0A0644
:1007000008D4DA43520505D4490705D5BDE8F047BA
:1007100000F0EEBE4907DFD4D9438905DCD4212D92
:1007200005D0402CD8D1BDE8F04701F02FB8BDE886
:10073000F04700F09BBE002ACEDB4A060BD4DA431A
:10074000520508D4490708D501E00DE00EE0BDE8E8
:10075000F04700F017BE4907BED4D9438905BBD482
:10076000BDE8F04700F0A4BD916970E7E10606D44A
:10077000D943890503D4BDE8F04701F07BB82821AF
:10078000212D27D0292D25D0650655D4DD436D05B3
:1007900052D4640752D590F83D30448D002C9BD044
:1007A0001269446A2270426A521C4262428D521E91
:1007B0004285428D002A8FD12A2B8DD10268536841
:1007C00023F4806353602222026380F83D1000F01E
:1007D00047F981E7250623D4DD436D0520D464075E
:1007E00020D590F83D30448D002CF2D0446A247816
:1007F0001461426A521C4262428D521E4285428DF1
:10080000002AE6D1292BE4D10268536823F48063DF
:1008100053602122026380F83D1000F022F95BE76B
:100820006107D6D4D9438905D3D4418D0029D0D0CE
:10083000416A097811610AE06107CAD4D943890580
:10084000C7D4418D0029C4D01169426A1170416A30
:10085000491C4162418D491E41853DE770470000BA
:1008600070B5040025D094F83D00002520B984F827
:100870003C50204600F0BEF8242084F83D0020685B
:10088000016821F0010101602068016841F4004124
:1008900001602068016821F40041016000F00CFA59
:1008A0004D4A6168914201D84C4900E04C49884268
:1008B00001D2012070BD4B492368B0FBF1F15E68A5
:1008C00026F03F060E435E606368934206D94FF4FC
:1008D000967359434FF47A73B1FBF3F12368491CC3
:1008E0001E6A26F03F06314319626168914210D8B2
:1008F0004900401EB0FBF1F2521CC2F30B02042A65
:1009000001D2042022E0B0FBF1F0401CC0F30B0048
:100910001CE0A268F2B301EBC10303EB0116431E16
:10092000B3FBF6F35B1C43F480431B0549D092B341
:1009300001EBC10202EB0111401EB0FBF1F0401CC3
:10094000C0F30B0040F4804040F400402168CA69C5
:100950004CF6FF739A431043C861D4E90710014372
:100960002068026822F0C00211430160D4E903014B
:1009700001432068826848F2FF339A431143816043
:10098000D4E9050108432168CA6822F0FF02104338
:10099000C86001E00EE016E02068016841F0010146
:1009A00001602564202084F83D00256384F83E50D2
:1009B000002070BD01EB4106431EB3FBF6F35B1C48
:1009C000B3E70120C2E701EB4101401EB0FBF1F0AB
:1009D000401CC0F30B00B7E7A086010080841E0016
:1009E00000093D0040420F00704770477047704754
:1009F0007047000010B586B000210091019102916E
:100A0000039100681349884222D1134CA06940F039
:100A10000800A061A069694600F008000490C020A9
:100A2000009012200190032003900C48FFF700FD76
:100A3000E06940F40010E061E069002200F4001079
:100A4000049005211F2000F06FF81F2000F05EF8D1
:100A500006B010BD0054004000100240000C0140E0
:100A6000704770470248816802781144816070477E
:100A700004000020074810B5016841F01001016032
:100A8000032000F071F80F2000F006F800F024F8C1
:100A9000002010BD0020024070B50D4D04464FF4FB
:100AA0007A712878B1FBF0F00A490968B1FBF0F0DF
:100AB00000F0D8FA48B9102C07D200222146501E67
:100AC00000F032F800206C6070BD012070BD0000A5
:100AD00004000020100000200B4882B0816941F022
:100AE00001018161816901F001010091C16941F059
:100AF0008051C161C069002200F0805000900F2138
:100B0000901E02B000F010B800100240002809DB6F
:100B100000F01F02012191404009800000F1E02017
:100B2000C0F8001170470000F0B40E4B1B680C4673
:100B3000C3F30223C3F10705042D00D90425191DB1
:100B4000072901D2002300E0DB1E012606FA05F189
:100B5000491E214099409E40761E16403143F0BC0C
:100B600000F072BF0CED00E0064900F007020868D3
:100B70004FF6FF03184040EA0220034A1043086082
:100B8000704700000CED00E00000FA052DE9F04789
:100B90000F46050061D0434E306800F00700B842B0
:100BA00009D2306820F0070038433060306800F028
:100BB0000700B84251D128683B4C810712D5400745
:100BC00003D5606840F4E06060602878000703D5D2
:100BD000606840F4605060606068A96820F0F000D0
:100BE000084360602878C00728D06868012810D0C2
:100BF0002168022810D0890700292EDA616821F0C7
:100C0000030101436160FFF709FD804641F2883925
:100C10000DE021688903EFE78901EDE7FFF7FEFCAE
:100C2000A0EB0801494502D90320BDE8F0876068C0
:100C3000696800F00C00B0EB810FEFD1306800F074
:100C40000700B8420BD9306820F007003843306005
:100C5000306800F00700B84201D00120E5E72878AD
:100C6000400705D56068E96820F4E06008436060EB
:100C70002878000706D56068296920F4605040EAAA
:100C8000C100606000F028F86168084AC1F30311F0
:100C9000515CC8400649086006480068FFF7FCFE42
:100CA0000020C2E70020024000100240CC250008CE
:100CB0001000002008000020044805490068496829
:100CC000044AC1F30221515CC84070471000002063
:100CD00000100240DC25000812A185B00FC98DE884
:100CE0000F0014A0144A006804905168134801F0E2
:100CF0000C03042B10D0082B0ED1C1F38343C9037E
:100D00001DF803000AD5516804AAC1F34041515CA3
:100D10000A4A5043B0FBF1F005B070470849484318
:100D2000FAE7000002030405060708090A0B0C0D88
:100D30000E0F1010010200000010024000127A0095
:100D400000093D002DE9F84F040070D02078C04D17
:100D5000C00749D06868C0F38100012807D06868DF
:100D6000C0F38100022809D16868C00306D528684D
:100D7000800339D560680028E7D035E06068B0F5B9
:100D8000803F0BD010B1B0F5A02F11D0286820F40F
:100D900080302860286820F4802002E0286840F431
:100DA00080302860606890B1FFF738FC06460AE0A2
:100DB000286840F480202860F0E700BFFFF72EFC91
:100DC000801B642873D828688003F7D50CE0FFF7F0
:100DD00025FC064605E000BFFFF720FC801B6428C9
:100DE000F0D828688003F7D420789A4E80074FF017
:100DF00001094FF0000839D5686810F00C0F07D0D2
:100E00006868C0F38100022809D16868C00306D46D
:100E10002868800714D52069012808D110E02069CE
:100E2000B0B1C6F80090FFF7F9FB074605E00AE10C
:100E3000FFF7F4FBC01B0228C4D828688007F7D549
:100E40002868616920F0F80040EAC10028600DE0E0
:100E5000C6F80080FFF7E2FB074604E0FFF7DEFB81
:100E6000C01B022823D828688007F7D42078000701
:100E70002CD57948A169D9B1C0F80090FFF7CEFB15
:100E8000074604E0FFF7CAFBC01B02280FD8686AB8
:100E90008007F7D571484FF4FA510068B0FBF1F0C4
:100EA000009000BF0098411E0091FAD20EE080E051
:100EB000C0F80080FFF7B2FB074604E0FFF7AEFB87
:100EC000C01B022875D8686A8007F7D420784007CD
:100ED00060D5E8690027C00008D4E86940F0805078
:100EE000E861E869012700F0805000905C480168E3
:100EF000C90513D40168834641F480710160FFF78E
:100F00008DFB824606E000BFFFF788FBA0EB0A00DE
:100F100064284ED8DBF80000C005F5D5E06801284C
:100F20000AD008B1052813D0286A20F001002862F1
:100F3000286A20F0040002E0286A40F001002862DC
:100F4000E06841F2883B98B1FFF768FB82460BE00E
:100F5000286A40F004002862EEE700BFFFF75EFB5E
:100F6000A0EB0A0159455AD8286A8007F6D50CE04B
:100F7000FFF754FB824605E0FFF750FBA0EB0A01A8
:100F800059454CD8286A8007F6D41FB1E86920F08B
:100F90008050E861E06988B36968C1F38101022982
:100FA00044D00228C6F8608004D0FFF737FB04461F
:100FB00038E034E0FFF732FB074604E0FFF72EFB92
:100FC000C01B02282BD828688001F7D4206AB0F50E
:100FD000803F05D16868A16820F40030084368604C
:100FE000D4E908010843696821F474110843686072
:100FF000C6F86090FFF712FB044606E025E000BF4C
:10100000FFF70CFB001B022809D828688001F7D5E0
:101010001BE000BFFFF702FB001B022802D90320E0
:10102000BDE8F88F28688001F4D40EE00128F7D0DD
:101030006868226A00F48031914204D1616A00F448
:101040007010884201D00120EAE70020E8E70000A4
:101050000010024000004242800442421000002082
:101060000070004010B5401EB0F1807F01D3012018
:1010700010BD4FF0E02460610F21601700F0E4FC28
:101080000020A06107202061002010BDFEE70000C5
:101090000148FFF7CBBA00007400002038B5406A61
:1010A000002190F83D202B4B46F2A8141B68B3FB9F
:1010B000F4F3C3EBC30303EB830300933BB15B1E69
:1010C000009303681B689B0505D5009BF6E7036C3E
:1010D00043F020030364436B03B19962836B03B154
:1010E000996203681C6824F480641C604185436B2A
:1010F00003B15963836B03B1596303681C6824F01F
:1011000001041C6090F83D402023602C0BD0282463
:1011100034EA02020FD080F83D3080F83E1000BF64
:10112000FFF79CFB38BD80F83D3080F83E1001642D
:10113000FFF77AFA38BD0268136843F001031360C1
:101140000268136843F480631360016380F83D40D4
:10115000E6E700001000002070B5044690F83D005E
:1011600094F83E10102901D0402906D1222804D13C
:1011700021680A6822F400620A60282131EA00022C
:101180004FF000054FF0200626D021684968090578
:1011900005D4602803D084F83D6084F83E50256370
:1011A00020684168090537D5416821F40061416034
:1011B000606B3D4990F82120012A11D04163606B9A
:1011C000FFF7E6F838B32068016821F001010160FB
:1011D00084F83D60606B1CE0256384F83D10DFE718
:1011E000A06B4163A06BFFF7D3F8A0B12068416901
:1011F000C943490605D40069616A0870606A401CE9
:1012000060622068016821F00101016084F83D609E
:10121000A06B416B884710E094F83D10602910D016
:101220004169C943490605D40069616A0870606A6A
:10123000401C60622046FFF711FB206CC1071CD1E7
:1012400015E084F83D6025644169C943490605D429
:101250000069616A0870606A401C60622068016809
:1012600021F0010101602046FFF7DEF9E5E7810783
:1012700003D4410701D4000704D52068416821F454
:10128000E061416094F83D00216C49070BD52828A6
:1012900009D10648E062256384F83D6084F83E5039
:1012A0002046FFF7A1FB70BD9D1000080000FFFF66
:1012B00010B5C26A438D0168042B06D0438D032B01
:1012C00008D0438D022B1DD012E04A6822F48062C0
:1012D0004A600CE04B6823F480634B60042A06D01C
:1012E000022A04D001680A6822F480620A60016858
:1012F0000969426A1170416A491C4162418D491E67
:10130000418510BD012A30D0102A2ED0042A30D0B9
:10131000022A2ED00A6842F400720A600168096944
:10132000426A1170416A491C4162428D521E4285D7
:10133000026812690A70416A491C4162418D491E66
:10134000418501684A6822F440724A60202180F891
:101350003D1090F83E200021402A80F83E100CD02D
:1013600012210163FFF741FB10BD0A6822F480627D
:10137000D3E70A6842F48062CFE70163FFF737FBE7
:1013800010BD000038B590F83D10222914D1418DD0
:10139000032912D901680969426A1170416A491C1E
:1013A0004162418D491E4185418D032904D1006868
:1013B000416821F48061416038BDC26A022AFBD0D5
:1013C000012901D00029F7D1274946F2A8130022AC
:1013D0000968B1FBF3F101EB810100910168202361
:1013E000009C641E009422D00C68A405F8D40C68FC
:1013F00024F480640C6001684C6824F4E0644C6060
:1014000001680969446A2170416A491C4162418D41
:10141000491E418580F83D3090F83E1080F83E200E
:1014200040291DD012210163FFF7DFFA38BD046C9B
:1014300044F0200404644C6824F4E0644C600168C7
:101440000969446A2170416A491C4162418D491E03
:10145000418580F83D3080F83E20FFF7FFF938BD28
:101460000263FFF7C4FA38BD1000002010B5C26A4D
:1014700090F83D1021290BD1418D51B1416A02688C
:1014800009781161416A491C4162418D491E4185BB
:1014900010BD20230021082A13D0202A11D012F5D4
:1014A000803F0ED00268546824F4E0645460112236
:1014B000026380F83E1080F83D3000BFFFF796FAD7
:1014C00010BD0268546824F4E06454600268146833
:1014D00044F400741460016380F83D3090F83E20BD
:1014E00080F83E10402AE9D1FFF782FA10BD0000D3
:1014F00010B590F83D1090F83E30C26A048DB4B13A
:10150000212903D0402B11D122290FD1418DE1B3E4
:1015100090F83E10402942D0416A02680978116172
:10152000416A491C4162418D491E418510BD2129F6
:10153000E8D120230021082A13D0202A11D012F547
:10154000803F0ED00268546824F4E0645460112295
:10155000026380F83E1080F83D3000BFFFF746FA86
:1015600010BD0268546824F4E06454600268146892
:1015700044F400741460016380F83D3090F83E201C
:1015800080F83E10402AE9D100E002E0FFF730FA8F
:1015900010BD0068416821F48061416010BDBDE864
:1015A000104000F0F3B8000078B590F83E50C26AE1
:1015B000046B90F83D6000230168222E73D1066D04
:1015C0000EB9402D6FD0056D1DB90569B5F5404FB9
:1015D0001BD0458D95B3468D484D012E20D0448DAE
:1015E000022C4DD00C6844F480640C6001684C6897
:1015F000240579D5AA4273D0012A71D0082A6FD068
:10160000102A6DD0202A6BD06EE04A698A69009258
:101610000A6842F480720A60016D491C016578BD58
:10162000AA4214D10A6822F480620A6001684A68FA
:10163000120504D50A6822F4806217E0FFE74A69C0
:101640008A6900920A6842F400720A6050E0082A2F
:1016500010D0202A0ED0122C0AD0042A03D0022A3D
:1016600001D0102AE6D10A6842F480620A603BE0A9
:10167000012ADFD00A6822F480620A600168DEE78E
:10168000042A11D0022A0FD0102A0DD00C6844F47D
:1016900000640C6001684C698C6900940C6824F447
:1016A00080640C6008E025E00C6844F480640C6001
:1016B00001684C698969009101684C68240517D557
:1016C000AA4207D0012A05D0082A03D0102A01D047
:1016D000202A0DD14A6842F480524A6008E0FFE7B0
:1016E0004A6842F480524A6001684A6989690091F7
:1016F000036578BD48698869009078BD0000FFFFE8
:1017000090F83E10402910D00169B1F5804F19D0F2
:10171000016DA9B3016D012910D1416C5FF0F10297
:1017200001F4407142EAD11106E0016D0029416CDB
:1017300005D0C9B241F0010100680161704701F0B4
:10174000FE01F9E790F83D102129416C09D0C9B29A
:1017500041F0010102681161416B29B1896A49B9FF
:1017600002E001F0FE01F5E7816B0029E6D0896A0D
:101770000029E3D00068416841F40061416070478E
:10178000FFE7416CF02201F44071CBE710B590F80F
:101790003D10026D22B3026D012A2FD0026D022A84
:1017A0001DD122292FD0428D0AB1212933D0428D5B
:1017B000002A14D1212912D101684A6822F4E0627A
:1017C0004A6001680A6842F400720A6000210163FD
:1017D000202280F83D2080F83E10FFF709F910BD67
:1017E000C16C0129816C02D0C1F3072108E00268B5
:1017F000C9B21161016D891C016510BD816CC9B24E
:101800000268116104E001680A6842F480720A60AB
:10181000016D491CF0E7416A026809781161416A6B
:10182000491C4162418D491E418510BD38B50C46A9
:1018300090F83D2000212825954302680B4605D0ED
:1018400051699169009180F83C3038BD556825F4A4
:1018500080655560E243540700D50121120601D589
:10186000828900E0028B80F83C3092B2FEF7DDFE08
:1018700038BD0000F8B590F83D6004460068416846
:1018800021F4E06141602068002541690091016810
:1018900041F0010101602068016821F4806101606C
:1018A00020684168090520D5474F222E48D02A2EAE
:1018B00046D0616B096849686185618D19B1216CF9
:1018C00041F004012164416821F400614160606BD2
:1018D000FEF7AAFD012808D0606B4763606BFEF736
:1018E00057FD10B1606B416B8847608D08B320686D
:1018F0004169C943490708D40069616A0870606A90
:10190000401C6062608D401E608520684169C9434B
:10191000490608D40069616A0870606A401C606208
:10192000608D401E6085608D18B1206C40F0040011
:101930002064206C00B32046BDE8F840FFF70CBCE3
:10194000A16B096849686185618D19B1216C41F00D
:1019500004012164416821F400614160A06BFEF73D
:1019600063FD0128C1D0A06B4763A06BFEF710FD9B
:101970000028BAD0A06BB6E72A2E06D1256328200E
:1019800084F83D002046FFF76BF894F83D102020C6
:1019900028290DD0216B222901D0222E07D12563C1
:1019A00084F83D0084F83E502046FFF759F8F8BD12
:1019B0000649E162256384F83D0084F83E502046E4
:1019C000FFF712F8F8BD00009D1000080000FFFFAF
:1019D000FEE7FEE7012000F0A9F8FBE710B5FFF7EE
:1019E00041F800F011FD012803D0BDE8104000F0DF
:1019F0009DBC10BD10B590B028216846FEF762FC72
:101A000014210AA8FEF75EFC022000900120049039
:101A100010200024059007946846FFF793F908B159
:101A200072B6FEE70F20CDE90A040C940D94002154
:101A30000AA80E94FFF7AAF8002801D072B6FEE7B4
:101A400010B010BD7047FEE70907090E002804DB3F
:101A500000F1E02080F80014704700F00F0000F162
:101A6000E02080F8141D70478CB0FFF703F8FFF7F3
:101A7000C1FF0024234800940194029403948169D7
:101A800041F010018161816901F010010B918169C0
:101A900041F00801816180691B4E00F008004FF49D
:101AA00000550B90002229463046FEF7B1FD01207B
:101AB0000095CDE901040220039069463046FEF707
:101AC000B7FC1348114901601249C0E901146900CB
:101AD000C0E9034144618461C4610462FEF7C0FE51
:101AE00008B172B6FEE71C220B4904A8FEF7B8FB4A
:101AF000002104A800F026F80849086000F01DF84D
:101B0000FEE70000001002400010014000540040B9
:101B100074000020A0860100B0250008000000200D
:101B200001460020842900D0C81C704710B500B9B8
:101B3000012000F015FB002010BD10B500F036FBB1
:101B4000002010BD7FB50D4604464169B0F908007C
:101B500081B1A16971B1FFF7E3FFD4E905128DE806
:101B60000700D4E900102B46226900F022FC039004
:101B700004B070BDFFF7D4FF03A9CDE90001208AAE
:101B80002B4682B2D4E9001000F0E6FB012801D018
:101B90000020EDE70398EBE72DE9F041184C0F46E4
:101BA000054666692068001D00F016FA38B92068FD
:101BB00090F82C1001208840A1698143A161681C24
:101BC00007D137B12168BDE8F0410E48091D00F08A
:101BD00047BA20683544B5424560216805D2A068FF
:101BE000BDE8F041091D00F023BA6068091D00F04E
:101BF0001FFA206B854200D22563BDE8F08100000A
:101C000014000020F80300202DE9F041054600F003
:101C100033FA2E4C2069401C206120682C4F10B1F3
:101C2000E06940B32DE025602069012829D1002614
:101C300006EB860007EB800000F0ECF9761C072E1F
:101C4000F6D323488C3000F0E5F92148A03000F0AD
:101C5000E1F91F48B43000F0DDF91D48C83000F04C
:101C6000D9F91B48DC3000F0D5F919488C30606098
:101C70001430A06005E02068E96AC06A884200D894
:101C80002560E06A401CE062E96A0120A2698840A0
:101C90001043A06101EB810007EB8000291D00F0DB
:101CA000DFF900F009FAE06900280CD02068E96A41
:101CB000C06A884207D207494FF080500860BFF3DE
:101CC0004F8FBFF36F8FBDE8F0810000140000203C
:101CD0001C03002004ED00E010B5044690F851000C
:101CE00058B101280CD002280FD0502080F3118861
:101CF000BFF34F8FBFF36F8FFEE7206B00F0F0F95B
:101D00002046BDE8104000F0EBB910BD10484FF47C
:101D10004061420706D0C01D0D4920F00700411A5E
:101D2000C1F540610B4A00230144C2E900030839B0
:101D3000103A21F0070111604B600B600B1AC0E9EB
:101D4000001393604FF000405360D0607047000074
:101D50000C04002060000020144E154CA6F1C807AA
:101D60004FF08058DFF84C9012E000BF00F084F98B
:101D7000F068C568281D00F02FF92069401E206119
:101D8000E068401EE06000F097F92846FFF7A4FFE6
:101D9000E0680028EAD138680128F9D9C9F800803C
:101DA000BFF34F8FBFF36F8FF2E70000E403002013
:101DB0001400002004ED00E02DE9F0479A46DDE92B
:101DC000098481466FF00303206B03EB8202104409
:101DD000089D20F00706700707D0502080F3118877
:101DE000BFF34F8FBFF36F8FFEE723180A5C83F8B2
:101DF00034200A5C12B1401C1028F6D3002784F866
:101E00004370072D00D30625E562C4E91157201D54
:101E100000F00BF904F1180000F007F92461C5F196
:101E200007006462A061E76484F850705246494636
:101E3000304600F0BFF82060B8F1000F01D0C8F8BC
:101E40000040BDE8F087000030B5114900E01146C0
:101E50000A688242FBD34B685C18844203D1406815
:101E600018444860084643681C18944209D1084C3D
:101E7000103C2468A24209D052681A4442600A68A1
:101E800012680260814200D0086030BD0460F9E74A
:101E90006000002006484168096829B14168C968A6
:101EA000C9684968016370474FF0FF31FAE70000E5
:101EB0001400002008484068401C4FF0500080F398
:101EC000118804D0BFF34F8FBFF36F8FFEE7BFF3CE
:101ED0004F8FBFF36F8FFEE7680000202DE9F041C0
:101EE0000546002700F098F9314E306808B9FFF731
:101EF0000DFFF06805424BD1C5B3083568070ED019
:101F000005F00700C0F108000544680707D050201D
:101F100080F31188BFF34F8FBFF36F8FFEE72DB3B0
:101F20007068854234D82248103001460C6801E0C0
:101F300020460C466168A94202D221680029F7D1E7
:101F400031688C4224D007682168016060680837D6
:101F5000411B10290FD96019420708D0502080F387
:101F60001188BFF34F8FBFF36F8FFEE710E0416022
:101F70006560FFF769FF61687068401A7060B26859
:101F8000904200D2B060F06801430020C4E9000133
:101F900000F0ACFA780707D0502080F31188BFF327
:101FA0004F8FBFF36F8FFEE73846BDE8F08100002A
:101FB0005000002010B5031F4FF080741C601B1FE1
:101FC00021F001011960191F024B0B6014394038D0
:101FD0000A6010BDB51E0008D0E9013201699A609F
:101FE000D0E901235A604A68824201D182684A607E
:101FF000002202610868401E0860086870470000FF
:10200000034B036003F154000860802010607047A8
:10201000C800002000F108014FF0FF32C0E90112B2
:10202000C1600161002101607047002101617047BA
:1020300030B50B685A1C02D000F1080202E00269B8
:1020400004E02246546825689D42FAD953684B60E3
:1020500099608A60516008610168491C016030BD67
:1020600042684A6093688B60936859609160086128
:102070000168491C01607047502080F31188BFF34C
:102080004F8FBFF36F8F0A494868401C4860012892
:102090000CD10848006810F0FF0F07D0502080F3E3
:1020A0001188BFF34F8FBFF36F8FFEE770470000BB
:1020B0006800002004ED00E00849486828B1401E8F
:1020C000486001D180F311887047502080F3118857
:1020D000BFF34F8FBFF36F8FFEE700006800002053
:1020E00070B5002827D0144DA0F108046168E86895
:1020F000014207D1502080F31188BFF34F8FBFF307
:102100006F8FFEE722683AB1502080F31188BFF349
:102110004F8FBFF36F8FFEE78143616000F07CF863
:1021200060686968084468602046FFF78DFEBDE876
:10213000704000F0DBB970BD500000204FF0E0208F
:1021400000210161816105494FF47A720968B1FB90
:10215000F2F1491E41610721016170471000002022
:1021600010B5020014D00F48806B38B1502080F3B6
:102170001188BFF34F8FBFF36F8FFEE700F04CF86D
:1021800000211046FFF708FD00F0B0F9002807D144
:1021900005494FF080500860BFF34F8FBFF36F8F3A
:1021A00010BD00001400002004ED00E010B586B062
:1021B0000024039405AA04A903A80494FFF720FFB0
:1021C000DDE903010094CDE9011000230EA11048C0
:1021D000059A00F0EEF80F490028486311D050200E
:1021E00080F31188BFF34F8FBFF36F8F4FF0FF3035
:1021F00008630120C8614C6106B0BDE8104000F0E2
:1022000041B806B010BD000049444C450000000034
:10221000591D0008140000200248816B491C81638D
:1022200070470000140000201448816B11B1012197
:1022300041627047002141628169B1FA81F1C1F1C7
:102240001F0101EB81020E4951F822306BB101EB05
:10225000820101F108034A6852684A609A4201D13A
:1022600052684A60D16801607047502080F311883D
:10227000BFF34F8FBFF36F8FFEE700001400002005
:102280001C0300201CB5264908780190FF20087027
:1022900008788DF800009DF800009DF8002000F0FF
:1022A000F000904207D0502080F31188BFF34F8F89
:1022B000BFF36F8FFEE79DF800001A4B00F050004F
:1022C00018700720986005E09DF8002052008DF8F6
:1022D0000020401E9DF800201206F5D498600328C7
:1022E00007D0502080F31188BFF34F8FBFF36F8F5B
:1022F000FEE74FF440709860019808700A48016842
:1023000041F470010160016841F070410160FFF724
:1023100015FF00205860FDF749FF00201CBD00009C
:1023200000E400E06800002020ED00E010B550203F
:1023300080F31188BFF34F8FBFF36F8F00F072F8F7
:1023400018B104494FF080500860002080F31188D4
:1023500010BD000004ED00E02DE9FF5F8346DDE9DC
:102360000E87994616468A469000FFF7B7FD05008E
:102370001CD05420FFF7B2FD040014D000202563C8
:1023800084F85100CDE90240CDE900874B46324642
:1023900051465846FFF710FD2046FFF735FC012057
:1023A00004B0BDE8F09F2846FFF79AFE4FF0FF30DB
:1023B000F6E7F0B585B0DDE90B640A9DA6B1DCB1A6
:1023C000542700972663022684F85160002604AF44
:1023D000CDE90246CDE90057FFF7EEFC2046FFF7B6
:1023E00013FC049805B0F0BD502080F31188BFF3B2
:1023F0004F8FBFF36F8FFEE7502080F31188BFF33C
:102400004F8FBFF36F8FFEE70548C16919B1806B2D
:1024100018B100207047012070470220704700006B
:10242000140000202DE9F0412E4C0027A06B40B194
:10243000206A401C2062606A00B101273846BDE86E
:10244000F0816669761C666113D16068006838B1F6
:10245000502080F31188BFF34F8FBFF36F8FFEE7DB
:102460006068A1686160A060A06A401CA062FFF77C
:1024700011FD206BDFF87080864209D36068006828
:1024800080B16068C068C568686886420DD2206304
:102490002068C06A00EB800158F821000128CAD9E1
:1024A0000127C8E74FF0FF30F1E7281DFFF794FD43
:1024B000A86A18B105F11800FFF78EFDE86A01213E
:1024C000A26981401143A16100EB800108EB81000A
:1024D000291DFFF7C5FDE86A2168C96A8842CDD386
:1024E0000127CBE7140000201C0300202DE9F04752
:1024F0002C4D00242746A86B38B1FFF7BDFDA86B13
:10250000401EA863A86B40B146E0502080F31188BC
:10251000BFF34F8FBFF36F8FFEE72969224E012073
:10252000D1B3A6F1B40980463068E8B1F068C46858
:1025300004F11800FFF750FD201DFFF74DFDE06A84
:10254000AA6908FA00F11143A96100EB800109EBC7
:102550008100211DFFF784FDE06A2968C96A88426D
:10256000E2D3C5F82480DFE70CB1FFF793FC2C6AB7
:1025700044B14646FFF756FF00B16E62641EF9D1C2
:1025800000202862686A38B10849012738070860C6
:10259000BFF34F8FBFF36F8FFFF78EFD3846BDE857
:1025A000F087000014000020D003002004ED00E0BC
:1025B000E4250008D5190008000000000000000014
:1025C000800000000000000000000000000000008B
:1025D00000000000010203040607080900000000D3
:1025E0000102030464656661756C745461736B0069
:1025F00010260008000000207400000028010008D8
:102600008426000874000020FC1500004401000826
:1026100000000000010000001000000000000000A9
:102620000024F40000000000000000000000000092
:10263000000000000000000000000000000000009A
:10264000000000000000000000000000000000008A
:10265000000000000000000000000000000000007A
:10266000000000000000000000000000000000006A
:10267000000000000000000000000000AAAAAAAAB2
:042680000000000056
:04000005080000ED02
:00000001FF
