:020000040800F2
:10000000580C0020C9010008F3110008C90E0008AF
:10001000F1110008CF020008711200080000000072
:100020000000000000000000000000001D12000899
:10003000D102000800000000F51100081F1200089E
:10004000E3010008E3010008E3010008E301000800
:10005000E3010008E3010008E3010008E3010008F0
:10006000E3010008E3010008E3010008E3010008E0
:10007000E3010008E3010008E3010008E3010008D0
:10008000E3010008E3010008E3010008E3010008C0
:10009000E3010008E3010008E3010008E3010008B0
:1000A000E3010008E3010008E3010008E3010008A0
:1000B000E3010008E3010008E3010008E301000890
:1000C000E3010008E3010008E3010008E301000880
:1000D000E3010008E3010008E3010008E301000870
:1000E000E3010008E3010008E301000800F002F862
:1000F00000F05AF80AA090E8000C82448344AAF168
:100100000107DA4501D100F04FF8AFF2090EBAE865
:100110000F0013F0010F18BFFB1A43F0010318473B
:100120003C1400005C1400000A444FF0000C10F86E
:10013000013B13F0070408BF10F8014B1D1108BF65
:1001400010F8015B641E05D010F8016B641E01F805
:10015000016BF9D113F0080F1EBF10F8014BAD1C55
:100160000C1B09D16D1E58BF01F801CBFAD505E073
:1001700014F8016B01F8016B6D1EF9D59142D6D3CD
:10018000704700000023002400250026103A28BFF5
:1001900078C1FBD8520728BF30C148BF0B607047F9
:1001A0001FB51FBD10B510BD00F058F81146FFF780
:1001B000F7FF01F09FF900F076F803B4FFF7F2FFC4
:1001C00003BC00F07DF8000009488047094800475B
:1001D000FEE7FEE7FEE7FEE7FEE7FEE7FEE7FEE7F7
:1001E000FEE7FEE704480549054A064B7047000054
:1001F0006F120008ED00000858060020580C00207F
:1002000058080020580800204FF0000200B513469F
:1002100094469646203922BFA0E80C50A0E80C5026
:10022000B1F12001BFF4F7AF090728BFA0E80C50D7
:1002300048BF0CC05DF804EB890028BF40F8042BD0
:1002400008BF704748BF20F8022B11F0804F18BF3D
:1002500000F8012B7047704770477047754600F0F3
:100260002BF8AE4605006946534620F00700854648
:1002700018B020B5FFF7B6FFBDE820404FF00006EC
:100280004FF000074FF000084FF0000B21F007017E
:10029000AC46ACE8C009ACE8C009ACE8C009ACE8C1
:1002A000C0098D46704710B50446AFF30080204664
:1002B000BDE81040FFF781BF00487047F8050020F7
:1002C00001491820ABBEFEE7260002007047FEE79A
:1002D000704772B6FEE700002DE9F84F00240023B6
:1002E000DFF8C4914FF00F0809F1040A0AF1040B7A
:1002F0000BF1040ED1E00127A7403A40BA4275D174
:10030000DFF8A8C14D68A5EB0C0665452BD00DDCC8
:10031000032D34D005DC35B3012D19D0022D2FD19A
:100320001BE0112D16D0122D2AD119E0B6F5881F29
:1003300019D006DCB6F5803F15D0B6F5801F1FD169
:1003400011E0B6F5001F0ED0B6F5041F18D10AE073
:10035000CB6815E0CB681B1D12E0CB6808330FE0BB
:10036000CB680C330CE08B6823B1012B04D008233D
:10037000476105E0042303E00823076100E0002350
:10038000FF2A01D8054601E000F1040502D84FEA32
:10039000840603E0A4F108064FEA86062F6808FAEF
:1003A00006FC27EA0C0703FA06F647EA06072F6061
:1003B0004D68ED0070D53E4DAE6946F00106AE6168
:1003C000AD6905F0010500953A4D24F00306771953
:1003D000BE68A5072D0F08FA05FC26EA0C06DFF813
:1003E000D8C0604503D14FF0000C17E054E0DFF8AF
:1003F000CCC0604502D14FF0010C0FE0DFF8C0C067
:10040000604502D14FF0020C08E0DFF8B8C060454B
:1004100002D14FF0030C01E04FF0040C0CFA05FC84
:100420004CEA060CC7F808C04D68ED0305D5D9F8AD
:1004300000501543C9F8005004E0D9F80050954326
:10044000C9F800504D68AD0305D5DAF800501543E2
:10045000CAF8005004E0DAF800509543CAF800509A
:100460004D68ED0205D5DBF800501543CBF8005080
:1004700004E0DBF800509543CBF800504D68AD0226
:1004800005D5DEF800501543CEF8005004E0DEF844
:1004900000509543CEF80050641C0A6832FA04F507
:1004A0007FF429AFBDE8F88F00040140000011106F
:1004B000001002400000014000080140000C014013
:1004C000001001400014014001488068704700009E
:1004D0009401002070B50446002C04D094F83D002F
:1004E000002510B106E0012070BD84F83C50204684
:1004F00000F060F9242084F83D002068016821F0B4
:10050000010101602068016841F400410160206838
:10051000016821F40041016000F0B6FA4F4B6168B8
:10052000994203D84E49884203D304E04D4988429A
:1005300001D2012070BD4C49B0FBF1F12268566830
:1005400026F03F060E43566062689A4201D8491C65
:1005500007E04FF4967251434FF47A72B1FBF2F117
:10056000491C2268166A26F03F0631431162616811
:10057000994210D84900401EB0FBF1F2521CC2F360
:100580000B02042A01D2042022E0B0FBF1F0401C4F
:10059000C0F30B001CE0A268F2B301EBC10303EB54
:1005A0000116431EB3FBF6F35B1C43F480431B05AB
:1005B00049D092B301EBC10202EB0111401EB0FB26
:1005C000F1F0401CC0F30B0040F4804040F40040C8
:1005D0002168CA694CF6FF739A431043C861D4E995
:1005E000071001432068026822F0C0021143016035
:1005F000D4E9030101432068826848F2FF339A433B
:1006000011438160D4E9051001432068C26822F0DB
:10061000FF021143C16001E00EE016E020680168AE
:1006200041F0010101602564202084F83D0025632C
:1006300084F83E50002070BD01EB4106431EB3FB21
:10064000F6F35B1CB3E70120C2E701EB4101401E5A
:10065000B0FBF1F0401CC0F30B00B7E7A08601002F
:1006600080841E0000093D0040420F002DE9F84F34
:1006700004468A4615469946DDF82880FFF724FF90
:10068000064694F83D00202802D00220BDE8F88FED
:100690001923012245492046009600F0ACFC08B120
:1006A0000220F3E794F83C00012807D0012084F8E9
:1006B0003C0020680168C90702D005E00220E5E798
:1006C000016841F0010101602068016821F40061C6
:1006D0000160212084F83D00102084F83E000027AE
:1006E00027646562A4F82A90608D20853048E06216
:1006F000334642465146204600F0FEFB08B1012039
:10070000C4E720684169806900903EE03246414676
:10071000204600F001FD48B1206C042804D1206877
:10072000016841F4007101600120AFE7606A21684F
:1007300000780861656A6D1C6562608D401E608589
:10074000208D401E80B2208522685169C943490727
:100750000BD450B128781061606A401C6062608DD3
:10076000401E6085208D401E208532464146204631
:1007700000F01AFC48B1206C042804D120680168FC
:1007800041F400710160012080E7208D0028BDD177
:100790001F3454F81F0C016841F4007101602020DF
:1007A000A077E7776777002070E70000020010006D
:1007B0000000FFFF10B586B0002102910391049163
:1007C000059100680F4988421AD10F4CA06940F08A
:1007D0000800A061A06900F008000190C02002900C
:1007E000122003900320059002A90848FFF774FD2A
:1007F000E06940F40010E061E06900F4001001904D
:1008000006B010BD0054004000100240000C014032
:100810000248816802781144816070479401002089
:1008200010B50748016841F010010160032000F095
:1008300069F80F2000F006F800F026F8002010BD3F
:100840000020024070B504460D4D4FF47A712878AF
:10085000B1FBF0F00B490968B1FBF0F000F020FBB0
:1008600008B1012070BD102C07D200222146501E75
:1008700000F028F86C60002070BD012070BD000001
:1008800094010020A001002008B50C48816941F0C6
:1008900001018161816901F001010091C16941F0AB
:1008A0008051C161C06900F08050009004494868DF
:1008B00020F0E06040F00070486008BD0010024089
:1008C00000000140F0B40D460D4B1B68C3F302233A
:1008D000C3F10704042C00D90424191D072901D2EF
:1008E000002300E0DB1E012606FA04F1491E294020
:1008F00099409E40761E16403143F0BC00F0B9BCD2
:100900000CED00E000F00701054A10684FF6FF0308
:10091000184040EA01200349084310607047000076
:100920000CED00E00000FA052DE9F04704460D4605
:10093000002C17D0DFF83081D8F8000000F0070055
:10094000A84211D2D8F8000020F007002843C8F8C8
:100950000000D8F8000000F00700A84204D00120F1
:10096000BDE8F0870120FBE72068404E810712D5E3
:10097000400703D5706840F4E0607060207800079D
:1009800003D5706840F4605070607068A16820F012
:10099000F000084370602078C0072CD06068012800
:1009A00006D0022809D0316889070BD40120D7E787
:1009B0003168890306D40120D2E73168890101D466
:1009C0000120CDE7716821F0030101437160FFF759
:1009D0007BFD074641F2883906E0FFF775FDC01B35
:1009E000484501D90320BBE77068616800F00C003E
:1009F000B0EB810FF1D1D8F8000000F00700A84259
:100A00000ED9D8F8000020F007002843C8F80000ED
:100A1000D8F8000000F00700A84201D001209FE7AD
:100A20002078400705D57068E16820F4E06008434D
:100A300070602078000706D57068216920F4605046
:100A400040EAC100706000F02FF87168084AC1F3F5
:100A50000311515CC8400749086007480068FFF768
:100A6000F1FE00207CE70000002002400010024060
:100A700044150008A00100209801002001480068EA
:100A800070470000A001002000B5FFF7F7FF044900
:100A90004968044AC1F30221515CC84000BD00000E
:100AA000001002405415000885B014A090E80E0014
:100AB000C068CDE902230191049014A00068009061
:100AC000134B5968134801F00C02042A10D0082A6D
:100AD0000ED101A8C1F38342805CC9030AD55968CD
:100AE000C1F340411DF801100A4A5043B0FBF1F038
:100AF00005B0704708494843FAE7000002030405BF
:100B0000060708090A0B0C0D0E0F10100102000059
:100B10000010024000127A0000093D002DE9F84F54
:100B20000446002C0ED02078D94DC0075ED06868EE
:100B3000C0F3810001280BD06868C0F3810002284F
:100B400003D00CE00120BDE8F88F6868C00306D52B
:100B5000286880034AD56068A8BB0120F3E7606875
:100B6000B0F5803F11D0A8B1B0F5A02F1BD02868F8
:100B700020F480302860286820F480202860606895
:100B800030B3FFF7A1FC06461EE0286840F4803031
:100B90002860F4E7286820F480302860286820F472
:100BA00080202860EBE7286840F4802028602868CF
:100BB00040F480302860E2E7FFF786FC801B642861
:100BC00002D90320BFE711E028688003F4D50DE0C7
:100BD000FFF77AFC064606E0FFF776FC801B6428E8
:100BE00001D90320AFE728688003F5D42078DFF827
:100BF000A48280074FF0010A4FF0000945D56868CC
:100C000010F00C0F07D06868C0F38100022812D1E1
:100C10006868C0030FD42868800704D520690128BC
:100C200001D001208FE72868616920F0F80040EAD0
:100C3000C100286029E02069B8B1C8F800A0FFF71A
:100C400043FC064606E0FFF73FFC801B022801D963
:100C5000032078E728688007F5D52868616920F0C7
:100C6000F80040EAC10028600FE0C8F80090FFF7E4
:100C70002BFC064606E0FFF727FC801B022801D963
:100C8000032060E728688007F5D42078000726D580
:100C90008148A16999B1C0F800A0FFF715FC06468C
:100CA00006E0FFF711FC801B022801D903204AE768
:100CB000686A8007F5D5012000F09EFA0FE0C0F8C1
:100CC0000090FFF701FC064606E0FFF7FDFB801BE6
:100CD000022801D9032036E7686A8007F5D4207816
:100CE000400773D50026E869C00008D4E86940F0E1
:100CF0008050E861E86900F0805000900126DFF83C
:100D00009CB1DBF80000C00514D4DBF8000040F40F
:100D10008070CBF80000FFF7D7FB074606E0FFF72F
:100D2000D3FBC01B642801D903200CE7DBF80000CB
:100D3000C005F4D5E068012812D0B0B105281DD057
:100D4000286A20F001002862286A20F00400286246
:100D5000E06841F2883B28B3FFF7B6FB07461DE089
:100D6000286A40F001002862F2E7286A20F00100BA
:100D70002862286A20F004002862E9E7286A40F027
:100D800004002862286A40F001002862E0E7FFF7CB
:100D90009BFBC01B584501D90320D4E6286A800775
:100DA000F5D50DE0FFF790FB074606E0FFF78CFB5B
:100DB000C01B584501D90320C5E6286A8007F5D431
:100DC000012E03D1E86920F08050E861E069A0B30A
:100DD0006968C1F38101022946D0022805D0C8F80C
:100DE0006090FFF771FB04463AE0C8F86090FFF7A7
:100DF0006BFB064606E0FFF767FB801B022801D964
:100E00000320A0E628688001F5D4206AB0F5803F71
:100E100005D16868A16820F4003008436860D4E90F
:100E200008010843696821F4741108436860C8F830
:100E300060A0FFF749FB044607E026E0FFF744FB0C
:100E4000001B022801D903207DE628688001F5D522
:100E50001BE0FFF739FB001B022801D9032072E6D3
:100E600028688001F5D410E001280CD06868226A57
:100E700000F48031914204D1616A00F4701088421C
:100E800003D001205FE601205DE600205BE6000064
:100E900000100240000042428004424200700040C4
:100EA00010B5401EB0F1807F01D3012010BD4FF07E
:100EB000E02460610F21601700F0DBF90020A061E1
:100EC00007202061002010BDFEE701684A69D24377
:100ED00052050FD46FF480624A61002140F8301F40
:100EE000202242738173026942F00402026101739D
:100EF0000120704700207047F8B504460D4617469C
:100F00001E46E06A082808D0012806D010F5803F68
:100F100003D0206B122806D00AE02068016841F453
:100F20008071016004E02068016841F48071016013
:100F30003B4600224FF001112046009600F05BF87E
:100F400040B120680068C00502D54FF400702064ED
:100F50000320F8BD2069B0F5804F0FD005F4407034
:100F6000F02141EAD0102168086133463A460D4924
:100F7000204600F07DF830B10120F8BD216805F071
:100F8000FE00086102E02168E8B2086105493346C5
:100F90003A46891F204600F06BF808B10120F8BDE1
:100FA0000020F8BD0800010070B504460D46164645
:100FB0000DE02046FFF789FF08B1012070BD681CD5
:100FC00005D0FFF781FA801BA84207D835B1206809
:100FD0004069C0434007ECD4002070BD002044F8B5
:100FE000300F20216173A073216941F0200121613C
:100FF0002073012070BD2DE9F0470446DDF82090F4
:101000000E4690461D46C6F3074708E0681C06D00A
:10101000FFF75AFAA0EB0900A8420FD875B1012FCB
:1010200019D02068806926EA00000004000C1DD059
:1010300000204045EAD00020BDE8F087002044F8B9
:10104000300F20216173A073216941F020012161DB
:1010500020730120F0E72068406926EA00000004C0
:10106000000C01D00020E4E70120E2E70120E0E7E6
:101070002DE9F04704460E46154698464FF0000904
:101080004FF0200AC6F3074725E020684069C043B7
:10109000400517D42068016841F40071016021689F
:1010A0006FF480604861C4F8309084F83DA084F803
:1010B0003E90206C40F00400206484F83C900120B5
:1010C000BDE8F087681C06D0FFF7FEF9A0EB08002A
:1010D000A8420BD855B1012F16D02068806926EAA6
:1010E00000000004000CD0D10020E9E7C4F83090E3
:1010F00084F83DA084F83E90206C40F020002064ED
:1011000084F83C900120DBE72068406926EA000073
:101110000004000CE8D0B8E770B504460D4616464A
:101120000DE02046FFF7D1FE08B1012070BD681C1C
:1011300005D0FFF7C9F9801BA84207D835B1206850
:101140004069C0430006ECD4002070BD002044F884
:10115000300F20216173A073216941F020012161CA
:101160002073012070BD000008B51148816941F06D
:1011700010018161816901F010010091816941F0E4
:1011800020018161816901F020010091816941F0B4
:1011900004018161816901F004010091816941F0DC
:1011A00008018161806900F00800009008BD00001E
:1011B0000010024010B50C480A4901600B4941601B
:1011C00000218160C1604FF4804202614161816110
:1011D000C1610162FFF77EF9002801D0FFF779F8BD
:1011E00010BD000000540040A4050020A0860100AE
:1011F000FEE7FEE77047000008B507494FF4FA52D2
:101200000968B1FBF2F14143009100BF0098411E13
:101210000091FAD208BD0000A00100207047FFF73E
:10122000F7BA30B58FB0282105A8FEF7EDFF1421DD
:101230006846FEF7E9FF012505952804069000247D
:101240000C9405A8FFF76AFC08B1FFF742F80F20DD
:101250000090019502940394049400216846FFF7DE
:1012600063FB002801D0FFF734F80FB030BD7047A2
:10127000FEE70907090E002804DB00F1E02080F8F2
:101280000014704700F00F0000F1E02080F8141DFA
:10129000704700002DE9F84305460E460124212140
:1012A0001548FEF7B1FF4FF47A77DFF84C8014E071
:1012B000202C0CD3104A2023782102F5806000975F
:1012C000FFF7D4F921210C48FEF79EFF012415F801
:1012D000010B08F80400641CE4B2761E701CE7D110
:1012E000002C07D0044A2346782102F5806000973D
:1012F000FFF7BCF9BDE8F883A40100202DE9FE4307
:101300004FF480661F4D01241FA003C8CDE90101E1
:10131000052101A8FFF7BEFF7F2000F001F9212180
:101320002846FEF771FF2F464FF0400987F80090DE
:101330004FF47A7816E0202C0FD3124A202378211C
:1013400002F58060CDF80080FFF790F921210D486B
:10135000FEF75AFF87F80090012415F8010B385565
:10136000641CE4B2761E701CE5D1002C08D0054A3E
:101370002346782102F58060CDF80080FFF776F9EA
:10138000BDE8FE83A40100202200FF210000000030
:101390002DE9F04F81468A4693461F46F81DC11736
:1013A00000EB51704FEAE0080026002519E0002408
:1013B00014E0600701D0760007E0E01704EB5070FE
:1013C0000BEBE00105FB08F0465C300605D50AEBA7
:1013D000050109EB040000F01BF8641CBC42E8DBCB
:1013E0006D1C09988542E2DBBDE8F08F38B50546F3
:1013F000C1F14000C2F1800400EBD07000914110B7
:1014000004EBD470134640102A46FFF7C1FF38BDE5
:1014100010B5802811D200290FDB40290DDACA1738
:1014200001EB5272D21000EBC210044A01F0070423
:101430000121135CA1400B43135410BDA4010020F3
:101440004FF480610148FEF7DFBE0000A4010020D8
:1014500010B5AE2000F064F8D52000F061F88020CF
:1014600000F05EF8A82000F05BF83F2000F058F88C
:10147000D32000F055F8002000F052F8402000F092
:101480004FF88D2000F04CF8142000F049F820208F
:1014900000F046F8002000F043F8A12000F040F8EA
:1014A000C82000F03DF8DA2000F03AF8122000F0F1
:1014B00037F8812000F034F8CF2000F031F8D9203F
:1014C00000F02EF8F12000F02BF8DB2000F028F8D7
:1014D000402000F025F8A42000F022F8A62000F01B
:1014E0001FF82E2000F01CF8BDE81040AF2000F0DF
:1014F00017B80000FFF794F9FFF793FEFFF734FEEB
:10150000FFF758FEFFF79CFFFFF7A2FF2D224321B4
:101510000248FFF76BFFFFF7F1FEFEE70000002037
:1015200008B5074900220A70487064200A460090F6
:101530000223782102F58060FFF798F808BD0000CB
:10154000A4010020000000000000000001020304CC
:101550000607080900000000010203047C150008CA
:1015600000000020A4010000280100084C1600081B
:10157000A4010020B40A00008401000881251FFF97
:10158000FFF0FA3F062C3E6FE40614A720F0180A7D
:10159000403E0B21F001F03E830C1DE03E536406FB
:1015A0000910302C3FFFEF064AFC0C2A5F063BEF88
:1015B000BF0C39062A731E2B3DDB1E2B3B7E062BF0
:1015C0000DFD062B1BEF062B6FFB069BBFDF4E9A14
:1015D000AF0C3A5F063ABF9639123AEF362AFC0C46
:1015E0003A01242B1439062B183B062B3037063AC8
:1015F0001006113A2F063A0F0699EA3A10063A30C9
:10160000063A38069A18CC4954119AEF060910F098
:10161000294E2C3FFFDF06190569065F308813024B
:101620000470062C890310062A830611131302186E
:101630000E303020130201303BACB7EACF70463990
:0C16400042290681320182101324F400BC
:04000005080000ED02
:00000001FF
