:020000040800F2
:10000000000D0020C9010008AF1600084B130008BE
:10001000AD160008CF0200087D1A0008000000009D
:10002000000000000000000000000000291A000885
:10003000D102000800000000B11600082B1A0008C9
:10004000E3010008E3010008E3010008E301000800
:10005000E3010008E3010008E3010008E3010008F0
:10006000E3010008E3010008E3010008E3010008E0
:10007000E3010008E3010008E3010008E3010008D0
:10008000E3010008E3010008E3010008E3010008C0
:10009000E3010008E3010008E3010008E3010008B0
:1000A000E3010008E3010008E3010008E3010008A0
:1000B000E3010008E3010008E3010008E301000890
:1000C000E3010008E3010008E3010008D916000875
:1000D000E3010008E3010008E3010008E301000870
:1000E000E3010008E3010008E301000800F002F862
:1000F00000F05AF80AA090E8000C82448344AAF168
:100100000107DA4501D100F04FF8AFF2090EBAE865
:100110000F0013F0010F18BFFB1A43F0010318473B
:1001200080210000A02100000A444FF0000C10F8CC
:10013000013B13F0070408BF10F8014B1D1108BF65
:1001400010F8015B641E05D010F8016B641E01F805
:10015000016BF9D113F0080F1EBF10F8014BAD1C55
:100160000C1B09D16D1E58BF01F801CBFAD505E073
:1001700014F8016B01F8016B6D1EF9D59142D6D3CD
:10018000704700000023002400250026103A28BFF5
:1001900078C1FBD8520728BF30C148BF0B607047F9
:1001A0001FB51FBD10B510BD00F058F81146FFF780
:1001B000F7FF01F02FFE00F076F803B4FFF7F2FF2F
:1001C00003BC00F07DF8000009488047094800475B
:1001D000FEE7FEE7FEE7FEE7FEE7FEE7FEE7FEE7F7
:1001E000FEE7FEE704480549054A064B7047000054
:1001F0007B1A0008ED00000800070020000D002019
:1002000000090020000900204FF0000200B513464D
:1002100094469646203922BFA0E80C50A0E80C5026
:10022000B1F12001BFF4F7AF090728BFA0E80C50D7
:1002300048BF0CC05DF804EB890028BF40F8042BD0
:1002400008BF704748BF20F8022B11F0804F18BF3D
:1002500000F8012B7047704770477047754600F0F3
:100260002BF8AE4605006946534620F00700854648
:1002700018B020B5FFF7B6FFBDE820404FF00006EC
:100280004FF000074FF000084FF0000B21F007017E
:10029000AC46ACE8C009ACE8C009ACE8C009ACE8C1
:1002A000C0098D46704710B50446AFF30080204664
:1002B000BDE81040FFF781BF004870479C06002052
:1002C00001491820ABBEFEE7260002007047FEE79A
:1002D000704772B6FEE7000010B5002490F82110B8
:1002E000022903D00421816301243DE001680A68EA
:1002F00022F00E020A6001680A6822F001020A6018
:100300001A4A0168914201D1012121E0174A1432B1
:10031000914201D110211BE0144A2832914201D1AF
:10032000891515E0114A3C32914201D189140FE040
:100330000E4A5032914202D14FF4803108E00B4A0C
:100340006432914202D14FF4801101E04FF080718C
:10035000064A083A5160012180F82110002180F8F6
:100360002010416B01B18847204610BD08000240B3
:100370002DE9F84F00240023DFF8C4914FF00F0857
:1003800009F1040A0AF1040B0BF1040ED1E0012774
:10039000A7403A40BA4275D1DFF8A8C14D68A5EB35
:1003A0000C0665452BD00DDC032D34D005DC35B3B0
:1003B000012D19D0022D2FD11BE0112D16D0122D99
:1003C0002AD119E0B6F5881F19D006DCB6F5803FB2
:1003D00015D0B6F5801F1FD111E0B6F5001F0ED065
:1003E000B6F5041F18D10AE0CB6815E0CB681B1DD9
:1003F00012E0CB6808330FE0CB680C330CE08B685D
:1004000023B1012B04D00823476105E0042303E056
:100410000823076100E00023FF2A01D8054601E018
:1004200000F1040502D84FEA840603E0A4F10806AF
:100430004FEA86062F6808FA06FC27EA0C0703FA3B
:1004400006F647EA06072F604D68ED0070D53E4D71
:10045000AE6946F00106AE61AD6905F00105009593
:100460003A4D24F003067719BE68A5072D0F08FA48
:1004700005FC26EA0C06DFF8D8C0604503D14FF032
:10048000000C17E054E0DFF8CCC0604502D14FF01B
:10049000010C0FE0DFF8C0C0604502D14FF0020C44
:1004A00008E0DFF8B8C0604502D14FF0030C01E06E
:1004B0004FF0040C0CFA05FC4CEA060CC7F808C017
:1004C0004D68ED0305D5D9F800501543C9F8005023
:1004D00004E0D9F800509543C9F800504D68AD03C9
:1004E00005D5DAF800501543CAF8005004E0DAF8F0
:1004F00000509543CAF800504D68ED0205D5DBF871
:1005000000501543CBF8005004E0DBF80050954351
:10051000CBF800504D68AD0205D5DEF8005015430C
:10052000CEF8005004E0DEF800509543CEF80050BD
:10053000641C0A6832FA04F57FF429AFBDE8F88F2D
:1005400000040140000011100010024000000140B2
:1005500000080140000C014000100140001401405F
:10056000C26821EA02030A4043EA0241016170477E
:100570000148806870470000A001002070B5044663
:10058000002C04D094F83D00002510B106E00120B5
:1005900070BD84F83C50204600F060F9242084F8B7
:1005A0003D002068016821F00101016020680168B8
:1005B00041F4004101602068016821F400410160BC
:1005C00000F0C4FA4F4B6168994203D84E49884203
:1005D00003D304E04D49884201D2012070BD4C494B
:1005E000B0FBF1F12268566826F03F060E435660D4
:1005F00062689A4201D8491C07E04FF49672514351
:100600004FF47A72B1FBF2F1491C2268166A26F0A7
:100610003F06314311626168994210D84900401E7B
:10062000B0FBF1F2521CC2F30B02042A01D20420E7
:1006300022E0B0FBF1F0401CC0F30B001CE0A2680C
:10064000F2B301EBC10303EB0116431EB3FBF6F358
:100650005B1C43F480431B0549D092B301EBC102FC
:1006600002EB0111401EB0FBF1F0401CC0F30B0087
:1006700040F4804040F400402168CA694CF6FF73A2
:100680009A431043C861D4E9071001432068026807
:1006900022F0C00211430160D4E903010143206844
:1006A000826848F2FF339A4311438160D4E9051010
:1006B00001432068C26822F0FF021143C16001E0DB
:1006C0000EE016E02068016841F001010160256438
:1006D000202084F83D00256384F83E50002070BD42
:1006E00001EB4106431EB3FBF6F35B1CB3E70120AD
:1006F000C2E701EB4101401EB0FBF1F0401CC0F32A
:100700000B00B7E7A086010080841E0000093D00B1
:1007100040420F002DE9F84F04468A461546994697
:10072000DDF82880FFF724FF064694F83D002028D6
:1007300002D00220BDE8F88F192301224549204646
:10074000009600F09AFE08B10220F3E794F83C000E
:10075000012807D0012084F83C0020680168C907FF
:1007600002D005E00220E5E7016841F001010160E7
:100770002068016821F400610160212084F83D00B7
:10078000102084F83E00002727646562A4F82A90B0
:10079000608D20853048E06233464246514620460F
:1007A00000F0ECFD08B10120C4E7206841698069D0
:1007B00000903EE032464146204600F0EFFE48B150
:1007C000206C042804D12068016841F400710160A4
:1007D0000120AFE7606A216800780861656A6D1CD6
:1007E0006562608D401E6085208D401E80B2208530
:1007F00022685169C94349070BD450B12878106168
:10080000606A401C6062608D401E6085208D401EC5
:10081000208532464146204600F008FE48B1206C53
:10082000042804D12068016841F4007101600120AE
:1008300080E7208D0028BDD11F3454F81F0C0168BB
:1008400041F4007101602020A077E77767770020EE
:1008500070E70000020010000000FFFF10B586B036
:100860000021029103910491059100680F4988428B
:100870001AD10F4CA06940F00800A061A06900F0F7
:1008800008000190C02002901220039003200590E0
:1008900002A90848FFF76CFDE06940F40010E06130
:1008A000E06900F40010019006B010BD0054004053
:1008B00000100240000C0140024881680278114497
:1008C00081607047A001002010B50748016841F021
:1008D00010010160032000F077F80F2000F006F807
:1008E00000F026F8002010BD0020024070B504463C
:1008F0000D4D4FF47A712878B1FBF0F00B4909687F
:10090000B1FBF0F000F00DFD08B1012070BD102C1E
:1009100007D200222146501E00F036F86C600020FD
:1009200070BD012070BD0000A0010020AC010020BE
:1009300008B50C48816941F001018161816901F0CC
:1009400001010091C16941F08051C161C06900F0AD
:10095000805000900449486820F0E06040F000704A
:10096000486008BD0010024000000140002809DB7B
:1009700000F01F02012191404009800000F1E020B9
:10098000C0F8001170470000F0B40D460D4B1B6815
:10099000C3F30223C3F10704042C00D90424191D56
:1009A000072901D2002300E0DB1E012606FA04F12C
:1009B000491E294099409E40761E16403143F0BCA6
:1009C00001F05DB80CED00E000F00701054A106889
:1009D0004FF6FF03184040EA012003490843106026
:1009E000704700000CED00E00000FA052DE9F0472B
:1009F00004460D46002C17D0DFF83081D8F80000EF
:100A000000F00700A84211D2D8F8000020F007003B
:100A10002843C8F80000D8F8000000F00700A842FA
:100A200004D00120BDE8F0870120FBE72068404E9C
:100A3000810712D5400703D5706840F4E06070600C
:100A40002078000703D5706840F4605070607068CB
:100A5000A16820F0F000084370602078C0072CD017
:100A60006068012806D0022809D0316889070BD4B4
:100A70000120D7E73168890306D40120D2E7316825
:100A8000890101D40120CDE7716821F00301014300
:100A90007160FFF76DFD074641F2883906E0FFF708
:100AA00067FDC01B484501D90320BBE7706861683A
:100AB00000F00C00B0EB810FF1D1D8F8000000F08D
:100AC0000700A8420ED9D8F8000020F007002843FC
:100AD000C8F80000D8F8000000F00700A84201D0D4
:100AE00001209FE72078400705D57068E16820F471
:100AF000E060084370602078000706D570682169BF
:100B000020F4605040EAC100706000F02FF8716876
:100B1000084AC1F30311515CC840074908600748FF
:100B20000068FFF7E3FE00207CE7000000200240A1
:100B30000010024086220008AC010020A401002021
:100B40000148006870470000AC01002000B5FFF7C5
:100B5000F7FF04494968044AC1F30221515CC840C7
:100B600000BD0000001002409622000885B014A0CD
:100B700090E80E00C068CDE902230191049014A012
:100B800000680090134B5968134801F00C02042AC6
:100B900010D0082A0ED101A8C1F38342805CC9039A
:100BA0000AD55968C1F340411DF801100A4A504363
:100BB000B0FBF1F005B0704708494843FAE7000080
:100BC00002030405060708090A0B0C0D0E0F10108E
:100BD000010200000010024000127A0000093D00EE
:100BE0002DE9F84F0446002C0ED02078D94DC007CF
:100BF0005ED06868C0F3810001280BD06868C0F33C
:100C00008100022803D00CE00120BDE8F88F68685D
:100C1000C00306D5286880034AD56068A8BB0120B8
:100C2000F3E76068B0F5803F11D0A8B1B0F5A02F10
:100C30001BD0286820F480302860286820F48020A9
:100C40002860606830B3FFF793FC06461EE0286812
:100C500040F480302860F4E7286820F48030286071
:100C6000286820F480202860EBE7286840F4802082
:100C70002860286840F480302860E2E7FFF778FCBD
:100C8000801B642802D90320BFE711E02868800395
:100C9000F4D50DE0FFF76CFC064606E0FFF768FCB4
:100CA000801B642801D90320AFE728688003F5D4AE
:100CB0002078DFF8A48280074FF0010A4FF0000986
:100CC00045D5686810F00C0F07D06868C0F3810044
:100CD000022812D16868C0030FD42868800704D5A1
:100CE0002069012801D001208FE72868616920F080
:100CF000F80040EAC100286029E02069B8B1C8F8CE
:100D000000A0FFF735FC064606E0FFF731FC801B2C
:100D1000022801D9032078E728688007F5D52868DC
:100D2000616920F0F80040EAC10028600FE0C8F8CF
:100D30000090FFF71DFC064606E0FFF719FC801B3C
:100D4000022801D9032060E728688007F5D42078BD
:100D5000000726D58148A16999B1C0F800A0FFF726
:100D600007FC064606E0FFF703FC801B022801D9BA
:100D700003204AE7686A8007F5D5012000F09AFC55
:100D80000FE0C0F80090FFF7F3FB064606E0FFF720
:100D9000EFFB801B022801D9032036E7686A800731
:100DA000F5D42078400773D50026E869C00008D440
:100DB000E86940F08050E861E86900F080500090F8
:100DC0000126DFF89CB1DBF80000C00514D4DBF885
:100DD000000040F48070CBF80000FFF7C9FB074625
:100DE00006E0FFF7C5FBC01B642801D903200CE710
:100DF000DBF80000C005F4D5E068012812D0B0B1DE
:100E000005281DD0286A20F001002862286A20F0F9
:100E100004002862E06841F2883B28B3FFF7A8FB92
:100E200007461DE0286A40F001002862F2E7286AC0
:100E300020F001002862286A20F004002862E9E717
:100E4000286A40F004002862286A40F00100286205
:100E5000E0E7FFF78DFBC01B584501D90320D4E61E
:100E6000286A8007F5D50DE0FFF782FB074606E00C
:100E7000FFF77EFBC01B584501D90320C5E6286A51
:100E80008007F5D4012E03D1E86920F08050E86195
:100E9000E069A0B36968C1F38101022946D0022844
:100EA00005D0C8F86090FFF763FB04463AE0C8F845
:100EB0006090FFF75DFB064606E0FFF759FB801BDD
:100EC000022801D90320A0E628688001F5D4206A11
:100ED000B0F5803F05D16868A16820F40030084370
:100EE0006860D4E908010843696821F47411084373
:100EF0006860C8F860A0FFF73BFB044607E026E007
:100F0000FFF736FB001B022801D903207DE6286885
:100F10008001F5D51BE0FFF72BFB001B022801D950
:100F2000032072E628688001F5D410E001280CD077
:100F30006868226A00F48031914204D1616A00F449
:100F40007010884203D001205FE601205DE600209A
:100F50005BE6000000100240000042428004424272
:100F6000007000407047000038B5044620684268B1
:100F70008168C9434B060AD5CB0708D1D3435B062A
:100F800005D4216C01B02046BDE8304008478B07EE
:100F900008D4D3431B0605D4616C01B02046BDE8DC
:100FA000304008478B0601D54B064AD4D3439B06F5
:100FB00047D44B060AD494F85130032B42D0636DCA
:100FC00043F004036365C36883680093890609D40A
:100FD000616D41F00101616581680091016821F056
:100FE00040010160606D00282BD02068416821F02D
:100FF000E0014160012084F8510002F0020002F09B
:101000000101084322D02068416821F003014160BA
:10101000104DE06C40B14563E06CFFF75DF918B12D
:10102000606D40F040006065A06C002809D0456309
:10103000A06CFFF751F9002803D0606D40F040002C
:10104000606538BDC1688068009038BD2046FFF7F4
:1010500089FF38BD8918000870B50446002C09D0F6
:10106000606A002540B125616561A56294F8510070
:1010700040B10CE0012070BD6068B0F5827FF4D013
:10108000E561F2E784F85050204600F03FF8022076
:1010900084F851002068016821F040010160A088B7
:1010A000218900F4827001F404410843A18901F40C
:1010B00000610843217C01F002010843217D01F019
:1010C00001010843218B01F400710843217F01F0E5
:1010D0003801084394F8201001F080010843218D65
:1010E00001F40051084321680860A069042101EA65
:1010F0001040216848602068C16921F40061C16125
:101100006565012084F85100002070BD10B586B0DF
:1011100000210291039104910591006817498842CA
:1011200029D11748816941F480518161816901F4B5
:1011300080510191816941F004018161806900F071
:1011400004000190B02002900E4C02A92046FFF747
:101150000FF940210291022103910321059102A977
:101160002046FFF705F9002211462320FFF70CFC6B
:101170002320FFF7FBFB06B010BD0000003001404C
:101180000010024000080140F0B4002385680426E6
:10119000002D03D14468B4F5827F0DD090F8504003
:1011A000012C10D0012480F8504090F85170002498
:1011B000012F0BD0022338E080F85160F0BC1346B9
:1011C0000A4600F05BB80220F0BC704779B172B1FA
:1011D00080F85160446581638287C2870463848696
:1011E000C4864464C16821B11249016403E001234B
:1011F0001BE011490164B5F5004F09D101680A6887
:1012000022F040020A6001680A6822F480420A6003
:1012100001684A6842F060024A6001680A68520642
:1012200003D40A6842F040020A6080F85040184631
:10123000CAE700002D1900084D19000870B50C4CC4
:10124000012521792A2911D06078421C6270094A4F
:1012500011546078202801D30020607004490122D5
:10126000491D0548FFF790FFE57070BDA570F0E7D8
:10127000000000207C06002004020020F0B50024BD
:1012800090F85050012D0CD0012580F8505090F866
:10129000515046680027012D0BD0B6F5827F06D14C
:1012A00001E00220F0BD86680EB9042D01D00224B1
:1012B0002AE0B1B1AAB1A3B190F85150042D02D0E7
:1012C000052580F85150476501638386C386826394
:1012D0008387C387C16831B10D4901640D494164F9
:1012E00005E0012410E00C4901640C4941640168E7
:1012F0004A6842F0E0024A6001680A68520603D474
:101300000A6842F040020A6080F850702046F0BD42
:10131000E51600084517000815170008751700089E
:10132000704710B5401EB0F1807F01D3012010BD81
:101330004FF0E02460610F21601700F0A0FB002057
:10134000A06107202061002010BDFEE701684A6906
:10135000D24352050FD46FF480624A61002140F8F5
:10136000301F202242738173026942F0040202613D
:10137000017301207047002070470000F8B5044653
:101380000D4617461E46E06A082808D0012806D0F8
:1013900010F5803F03D0206B122806D00AE02068A9
:1013A000016841F48071016004E02068016841F443
:1013B000807101603B4600224FF0011120460096EB
:1013C00000F05BF840B120680068C00502D54FF41A
:1013D000007020640320F8BD2069B0F5804F0FD065
:1013E00005F44070F02141EAD010216808613346CD
:1013F0003A460D49204600F07DF830B10120F8BD95
:10140000216805F0FE00086102E02168E8B2086189
:10141000054933463A46891F204600F06BF808B16B
:101420000120F8BD0020F8BD0800010070B5044699
:101430000D4616460DE02046FFF788FF08B1012053
:1014400070BD681C05D0FFF793F8801BA84207D831
:1014500035B120684069C0434007ECD4002070BD1E
:10146000002044F8300F20216173A073216941F0FE
:10147000200121612073012070BD2DE9F047044651
:10148000DDF820900E4690461D46C6F3074708E05B
:10149000681C06D0FFF76CF8A0EB0900A8420FD833
:1014A00075B1012F19D02068806926EA0000000478
:1014B000000C1DD000204045EAD00020BDE8F08798
:1014C000002044F8300F20216173A073216941F09E
:1014D0002001216120730120F0E72068406926EA9D
:1014E00000000004000C01D00020E4E70120E2E746
:1014F0000120E0E72DE9F04704460E4615469846E0
:101500004FF000094FF0200AC6F3074725E0206896
:101510004069C043400517D42068016841F4007158
:10152000016021686FF480604861C4F8309084F8ED
:101530003DA084F83E90206C40F00400206484F8C4
:101540003C900120BDE8F087681C06D0FFF710F83A
:10155000A0EB0800A8420BD855B1012F16D0206887
:10156000806926EA00000004000CD0D10020E9E7E1
:10157000C4F8309084F83DA084F83E90206C40F090
:101580002000206484F83C900120DBE7206840695B
:1015900026EA00000004000CE8D0B8E770B5044665
:1015A0000D4616460DE02046FFF7D0FE08B101209B
:1015B00070BD681C05D0FEF7DBFF801BA84207D872
:1015C00035B120684069C0430006ECD4002070BDEE
:1015D000002044F8300F20216173A073216941F08D
:1015E000200121612073012070BD000008B5114861
:1015F000816941F010018161816901F01001009160
:10160000816941F020018161816901F0200100912F
:10161000816941F004018161816901F00401009157
:10162000816941F008018161806900F00800009043
:1016300008BD00000010024010B50C480A490160C6
:101640000B49416000218160C1604FF4804202611A
:1016500041618161C1610162FEF790FF002801D004
:10166000FEF737FE10BD000000540040B00100201E
:10167000A086010010B50C480A49016000214160B4
:101680008160C16001614161816101624162816289
:101690000A21C162FFF7E0FC002801D0FEF719FE25
:1016A00010BD00000030014004020020FEE7FEE70C
:1016B0007047000008B507494FF4FA520968B1FBBA
:1016C000F2F14143009100BF0098411E0091FAD20F
:1016D00008BD0000AC0100200148FFF745BC000038
:1016E000040200200168C968826B1180816B891C2B
:1016F0008163C18F491EC187C18F002909D101684B
:101700004A6822F040024A60C18E002901D100F0EF
:1017100049B870470168097B826B1170816B491C65
:101720008163C18F491EC187C18F002909D101681A
:101730004A6822F060024A60C18E002901D100F09F
:1017400031B87047016B02680988D160016B891C50
:101750000163C18E491EC186C18E002909D101686D
:101760004A6822F080024A60C18F002901D100F04E
:1017700019B87047016B026809781173016B491C35
:101780000163C18E491EC186C18E002909D101683D
:101790004A6822F080024A60C18F002901D100F01E
:1017A00001B870471CB50446234845F6C05100688F
:1017B000B0FBF1F0642148430190FEF7D9FE0246E8
:1017C0002068416821F020014160019890B10198A2
:1017D000401E0190206880688007F6D5642120466D
:1017E00000F092F818B1606D40F020006065A068CC
:1017F00028B108E0606D40F020006065EEE72068E9
:10180000C16880680090616D012029B184F85100A1
:101810002046FFF7A7FB1CBD94F85110042905D002
:1018200084F851002046FFF77BFD1CBD84F8510071
:101830002046FFF703FD1CBDAC01002038B504466F
:101840002068416821F060014160FEF791FE024688
:101850006421204600F020F818B1606D40F02000AF
:101860006065A06818B92068C16880680090012090
:1018700084F85100606D18B12046FFF773FB38BD46
:101880002046FFF7DBFC38BD10B5406A0021C18758
:10189000C186FFF767FB10BDF8B504464FF48275AB
:1018A00060684FF48063A8420AD1A068B0F5004F89
:1018B00001D0984204D12068066826F040060660F0
:1018C0006068A84210D1A06898420DD10B460092E2
:1018D00000220121204600F049F898B1606D40F0E7
:1018E000200060650320F8BD0B4600920022802195
:1018F000204600F03BF828B1606D40F020006065A4
:101900000320F8BD0020F8BD38B504460B46009210
:1019100000228021204600F029F828B1606D40F0B7
:1019200020006065032038BD002038BD0168C9680B
:10193000826B1180816B891C8163C18F491EC187B5
:10194000C18F002901D1FFF779BF70470168097B7A
:10195000826B1170816B491C8163C18F491EC187E5
:10196000C18F002901D1FFF769BF70472DE9F84306
:1019700004460F4691461E46089DFEF7F9FD401BA2
:10198000351AFEF7F5FD804626480068C0F3CB30D7
:10199000684300903AE0701C38D0FEF7E9FDA0EBF8
:1019A0000800A84203D215B1009858B32BE0206874
:1019B000416821F0E00141606068B0F5827F0BD1A1
:1019C000A068B0F5004F02D0B0F5806F04D1206858
:1019D000016821F040010160A06AB0F5005F09D103
:1019E0002068016821F4005101602068016841F419
:1019F00000510160012050346070002020700320ED
:101A0000BDE8F88300250098401E0090206880689B
:101A100037EA000004D000204845BCD10020EFE7A1
:101A20000120F9E7AC0100207047FEF745BF30B553
:101A30008FB0282105A8FEF7E7FB14216846FEF7C2
:101A4000E3FB012505952804069000240C9405A8C5
:101A5000FFF7C6F808B1FEF73CFC0F200090019597
:101A600002940394049400216846FEF7BFFF002807
:101A700001D0FEF72EFC0FB030BD7047FEE709071E
:101A8000090E002804DB00F1E02080F80014704704
:101A900000F00F0000F1E02080F8141D70470000F6
:101AA00010B500F00FF820210448FEF7ADFB044903
:101AB0000020C87188714870087010BD7C06002035
:101AC0000000002010B54FF480610348FEF79CFB36
:101AD000BDE8104000F036B85C0200202DE9F84364
:101AE00005460E46012420211548FEF78DFB4FF4D4
:101AF0007A77DFF84C8014E0202C0CD3104A202396
:101B00007821A2F2AC400097FEF704FE20210C4899
:101B1000FEF77AFB012415F8010B08F80400641C99
:101B2000E4B2761E701CE7D1002C07D0044A23468D
:101B30007821A2F2AC400097FEF7ECFDBDE8F883F7
:101B40005C0600202DE9FE434FF48066204D012401
:101B500020A003C8CDE90101052101A8FFF7BEFFC0
:101B60007F2000F0A1F9202105F58060FEF74CFBF5
:101B700005F580674FF0400987F800904FF47A78B8
:101B800016E0202C0FD3154A20237821A2F2AC4076
:101B9000CDF80080FEF7BEFD20211048FEF734FB93
:101BA00087F80090012415F8010B3855641CE4B245
:101BB000761E701CE5D1002C08D0084A23467821F7
:101BC000A2F2AC40CDF80080FEF7A4FDBDE8FE8394
:101BD0005C0200202200FF21000000005C060020C3
:101BE0002DE9F04F81468A4693461F46F81DC117DE
:101BF00000EB51704FEAE0080026002519E00024B0
:101C000014E0600701D0760007E0E01704EB5070A5
:101C10000BEBE00105FB08F0465C300605D50AEB4E
:101C2000050109EB040000F075F8641CBC42E8DB18
:101C30006D1C09988542E2DBBDE8F08F2DE9F04F7D
:101C400080460F46B8F1800F2FD2402F2DDA002F9B
:101C50002BDBA8F17900002827DCA7F1370000284A
:101C600023DC202A21D37E2A1FD8203A02EB8200CF
:101C70004FEA40090025DFF838A005EB09001AF902
:101C80000060002407EB050B300604D5594608EB2D
:101C9000040000F03FF8700046B2641C64B2082CE7
:101CA000F2DB6D1C6DB20A2DE7DBBDE8F08F0000A2
:101CB000D01E000870B504460D4616462078083040
:101CC00080280BD3287800210A30402804D32170C3
:101CD0002970FFF7F7FE01E028702170297820783D
:101CE0003246FFF7ABFF20780830207070BD38B562
:101CF0000546C1F14000C2F1800400EBD0700091B4
:101D0000411004EBD470134640102A46FFF768FFD9
:101D100038BD000010B5802811D200290FDB402902
:101D20000DDACA1701EB5272D21000EBC210044A4E
:101D300001F007040121135CA1400B43135410BDB3
:101D40005C02002010B54FF480610648FEF75CFA93
:101D50000548002101818172BDE81040202103481F
:101D6000FEF752BA5C020020000000205C06002052
:101D700010B5AE2000F098F8D52000F095F880203E
:101D800000F092F8A82000F08FF83F2000F08CF8C7
:101D9000D32000F089F8002000F086F8402000F001
:101DA00083F88D2000F080F8142000F07DF82020CA
:101DB00000F07AF8002000F077F8A12000F074F825
:101DC000C82000F071F8DA2000F06EF8122000F060
:101DD0006BF8812000F068F8CF2000F065F8D9207A
:101DE00000F062F8F12000F05FF8DB2000F05CF812
:101DF000402000F059F8A42000F056F8A62000F08A
:101E000053F82E2000F050F8BDE81040AF2000F04D
:101E10004BB80000FEF758FDFFF709FEFFF7E6FBA1
:101E2000FFF70AFCFFF726FC01221B491B48FFF7BE
:101E3000ABF9FFF787FFFFF79BFF17482D224321E0
:101E4000801DFFF754FFFFF77DFE134C0025641F34
:101E5000E0780128FCD1A07810B1FFF721FEA57031
:101E60004FF400510E48FEF77BFB0E4E0EE00A4980
:101E7000325C891C481EFFF71DFF2078401CC0B251
:101E80002070202800D32570FFF75CFE2078617851
:101E90008842ECD1E570DBE7050000200402002059
:101EA000001001407C06002008B5074A002111817E
:101EB00091720832117050706420009002237821D2
:101EC0000248FEF727FC08BD00000020B0010020FA
:101ED00000000000000000000000101010101010A2
:101EE0000010000028282800000000000000242422
:101EF0007C24487C484800003854503814545438E6
:101F000010002054583028541408000010282810BD
:101F10003448483400001010100000000000000099
:101F20000810202020202020100820100808080871
:101F300008081020103810280000000000000000E1
:101F400010107C10100000000000000000000010C5
:101F50001010000000000038000000000000000029
:101F600000000010000008081010101020200000D1
:101F70003844445444444438000010305010101089
:101F800010100000384444040810207C000038443D
:101F9000041804044438000008182828487C08085D
:101FA00000007C4040780404443800003844407805
:101FB0004444443800007C04081010202020000015
:101FC00038444438444444380000384444443C04D1
:101FD0004438000000001000000000100000000065
:101FE000001000000010101000000C3040300C00F9
:101FF00000000000007C007C000000000000601871
:10200000041860000000384404081010001000009C
:1020100038444C545C404038000010282828287C64
:1020200044440000784444784444447800003844F0
:1020300040404040443800007048444444444870A4
:1020400000007C40407C4040407C00007C40407868
:10205000404040400000384440405C444438000068
:102060004444447C44444444000038101010101090
:1020700010380000040404040404443800004448F8
:102080005060504848440000404040404040407C40
:102090000000446C6C544444444400004464645460
:1020A000544C4C44000038444444444444380000F8
:1020B0007844444478404040000038444444444418
:1020C0005438040078444444784848440000384474
:1020D00040300804443800007C101010101010101C
:1020E00000004444444444444438000044444428E8
:1020F00028281010000044445454546C2828000030
:10210000442828101028284400004444282810108F
:10211000101000007C0408101020407C00001810F3
:102120001010101010101018202010101010080897
:10213000000030101010101010101030102828441B
:10214000000000000000000000000000000000FE91
:1021500020100000000000000000000038443C4453
:102160004C3400004040586444446458000000006F
:1021700038444040443800000404344C44444C3457
:102180000000000038447C40443800000C107C10F3
:102190001010101000000000344C44444C340478FB
:1021A0004040586444444444000010007010101033
:1021B00010100000100070101010101010E04040BF
:1021C000485060504844000070101010101010105B
:1021D0000000000078545454545400000000586427
:1021E000444444440000000038444444443800005F
:1021F000000058644444645840400000344C444457
:102200004C3404040000586440404040000000008A
:10221000384430084438000020207820202020183E
:1022200000000000444444444C3400000000444496
:1022300028282810000000005454546C282800005E
:1022400000004428101028440000000044442828BE
:102250001010106000007C081020407C0000181056
:102260001010202010101018101010101010101046
:1022700010103010101008081010103000000074FA
:102280004C000000000000000000000000000102FF
:10229000030406070809000000000102030400000F
:1022A000C022000800000020B00100002801000842
:1022B00090230008B0010020500B000084010008AA
:1022C0000113251FFFFFF0FA3F062C3E6FE40614B2
:1022D000A720F0180A403E0B21F001F03E830C1DB0
:1022E000E03E5364060910302C3FFFEF064AFC0C19
:1022F0002A5F063BEFBF0C39062A731E2B3DDB1EFF
:102300002B3B7E062B0DFD062B1BEF062B6FFB06D2
:102310009BBFDF4E9AAF0C3A5F063ABF9639123A2E
:10232000EF362AFC0C3A01242B1439062B183B06F5
:102330002B3037063A1006113A2F063A0F0699EA63
:102340003A10063A30063A38069A18CC4954119A8F
:10235000EF060910F0294E2C3FFFDF06190569062C
:102360005F308813020470062C890310062A830646
:1023700011131302180E303020130201303BACB79A
:10238000EACF70463942290691320182101324F4B3
:04000005080000ED02
:00000001FF
