:020000040800F2
:100000000007002089010008F313000859130008B5
:10001000F11300088F0200086F17000800000000AD
:10002000000000000000000000000000F7130008BE
:10003000C702000800000000F5130008F9130008CB
:10004000A3010008A3010008A3010008A301000800
:10005000A3010008A3010008A3010008A3010008F0
:10006000A3010008A3010008A301000891020008F1
:10007000A3010008A3010008A3010008A3010008D0
:10008000A3010008A3010008A3010008A3010008C0
:10009000A3010008A3010008A3010008A3010008B0
:1000A000A3010008A3010008A3010008A3010008A0
:1000B000A3010008A3010008A3010008A301000890
:1000C000A3010008A3010008A3010008A301000880
:1000D000A3010008A3010008A3010008A301000870
:1000E000A3010008A3010008A301000800F002F822
:1000F00000F03AF80AA090E8000C82448344AAF188
:100100000107DA4501D100F02FF8AFF2090EBAE885
:100110000F0013F0010F18BFFB1A43F0010318473B
:10012000BC170000DC170000103A24BF78C878C163
:10013000FAD8520724BF30C830C144BF04680C60ED
:10014000704700000023002400250026103A28BF35
:1001500078C1FBD8520728BF30C148BF0B60704739
:100160001FB51FBD10B510BD00F058F81146FFF7C0
:10017000F7FF01F00DFB00F076F803B4FFF7F2FF94
:1001800003BC00F07DF8000009488047094800479B
:10019000FEE7FEE7FEE7FEE7FEE7FEE7FEE7FEE737
:1001A000FEE7FEE704480549054A064B7047000094
:1001B0004D140008ED000008000100200007002099
:1001C00000030020000300204FF0000200B513469A
:1001D00094469646203922BFA0E80C50A0E80C5067
:1001E000B1F12001BFF4F7AF090728BFA0E80C5018
:1001F00048BF0CC05DF804EB890028BF40F8042B11
:1002000008BF704748BF20F8022B11F0804F18BF7D
:1002100000F8012B7047704770477047754600F033
:100220002BF8AE4605006946534620F00700854688
:1002300018B020B5FFF7B6FFBDE820404FF000062C
:100240004FF000074FF000084FF0000B21F00701BE
:10025000AC46ACE8C009ACE8C009ACE8C009ACE801
:10026000C0098D46704710B50446AFF300802046A4
:10027000BDE81040FFF781BF004870479C00002098
:1002800001491820ABBEFEE7260002007047FEE7DA
:10029000014800F067B800005800002030B590F821
:1002A00040500124AC40C56B6C60046863604368D7
:1002B000102B036803D099600068C26030BD9A605B
:1002C0000068C16030BD704772B6FEE710B590F8A7
:1002D00021100024022903D00421816301243DE080
:1002E00001680A6822F00E020A6001680A6822F0BA
:1002F00001020A601A4A0168914201D1012121E0FC
:10030000174A1432914201D110211BE0144A2832BD
:10031000914201D1891515E0114A3C32914201D137
:1003200089140FE00E4A5032914202D14FF48031CD
:1003300008E00B4A6432914202D14FF4801101E08F
:100340004FF08071064A083A5160012180F821106F
:10035000002180F82010416B01B18847204610BD74
:10036000080002402DE9F05FC16B0C6801680B6862
:10037000D0F840C0042202FA0CF2494DDFF824A163
:10038000494E4A4FDFF828B1DFF828E122422CD04D
:100390005A072AD50A68920603D40A6822F0040292
:1003A0000A600168A94201D1042219E0514501D136
:1003B000402215E0B14202D14FF4806210E0B94210
:1003C00002D14FF480420BE0594502D14FF4802214
:1003D00006E0714502D14FF4800201E04FF08062E7
:1003E0002F4908394A60C16A3BE04FF0020808FA19
:1003F0000CF818EA040F4FF000094FF0010235D055
:100400005FEA837832D50B689B0605D40B6823F02E
:100410000A030B6080F821200168A94201D1022261
:1004200019E0514501D1202215E0B14202D14FF42B
:10043000007210E0B94202D14FF400520BE059456E
:1004400002D14FF4003206E0714502D14FF40012A0
:1004500001E04FF00072124908394A6080F820909C
:10046000816A00291AD0BDE8F05F0847082505FA1F
:100470000CF5254212D01B0710D50B6823F00E0394
:100480000B6090F84010C36B02FA01F1596082636F
:1004900080F8212080F82090016BE2E7BDE8F09F12
:1004A000080002401C0002403000024044000240AC
:1004B000580002406C00024030B528B308C8134908
:1004C00014221944B1FBF2F18900C1631049816320
:1004D000022141771A6843F6F0718A43D0E900148B
:1004E0002143D0E902452C43214304692143446957
:1004F0002143846921431143196000214163012292
:1005000042770177084630BD012030BDF8FFFDBFBE
:100510000000024070B5044690F820000025012834
:100520000CD0012084F8200094F821600020012ED6
:1005300006D084F820000225284670BD022070BD38
:10054000022684F82160A0632068066826F0010670
:1005500006602046FFF7A2FEE06A002820680168D6
:1005600002D041F00E0106E021F004010160206894
:10057000016841F00A0101602068016841F0010151
:100580000160D9E770B5044600F0FEF80546601C2E
:1005900002D004480078044400F0F6F8401BA04262
:1005A000FAD370BD000000202DE9F84FDFF8B891B4
:1005B000002409F1040A0AF1040B23460F270BF16A
:1005C000040EC9E00125A5402A40AA427DD1674E0C
:1005D000D1F804C0ACEB0608B44532D014DCBCF151
:1005E000030F3AD009DCBCF1000F2AD0BCF1010F97
:1005F0001CD0BCF1020F31D11DE0BCF1110F17D09E
:10060000BCF1120F2AD119E0B8F5881F19D006DC09
:10061000B8F5803F15D0B8F5801F1FD111E0B8F5AF
:10062000001F0ED0B8F5041F18D10AE0CB6815E002
:10063000CB681B1D12E0CB6808330FE0CB680C338E
:100640000CE08B682BB1012B4FF0080303D0456100
:1006500004E0042302E0056100E00023FF2A01D842
:10066000064601E000F104064FEA840501D9A5F130
:100670002005D6F8008007FA05FC28EA0C0803FAE2
:1006800005F548EA0508C6F800804D68ED0062D51A
:10069000374DAE6946F00106AE61AD6924F0030640
:1006A00005F001050095334D06EB050CDCF808500C
:1006B000A607360F07FA06F825EA0805DFF8B8801E
:1006C000404503D14FF0000817E044E0DFF8AC806C
:1006D000404502D14FF001080FE0DFF8A48040450B
:1006E00002D14FF0020808E0DFF89880404502D1BF
:1006F0004FF0030801E04FF0040808FA06F848EA52
:100700000508CCF808804D68D9F80060ED034D4627
:1007100001D5164300E096432E604D68DAF800607C
:10072000AD03554601D5164300E096432E604D6853
:10073000DBF80060ED025D4601D5164300E096430C
:100740002E604D68DEF80060AD02754601D5164397
:1007500000E096432E60641C0D682A46E5407FF455
:1007600031AFBDE8F88F0000000401400000111017
:10077000001002400000014000080140000C014050
:1007800000100140001401400148806870470000DB
:10079000000000200248816802781144816070479F
:1007A00000000020074810B5016841F01001016009
:1007B000032000F06DF80F2000F006F800F024F898
:1007C000002010BD0020024070B50D4D04464FF4CE
:1007D0007A712878B1FBF0F00A490968B1FBF0F0B2
:1007E00000F0C4FA48B9102C07D200222146501E4E
:1007F00000F02EF800206C6070BD012070BD00007C
:10080000000000200C000020094808B5816941F073
:1008100001018161816901F001010091C16941F02B
:100820008051C161C06900F08050009008BD000097
:1008300000100240002809DB00F01F020121914056
:100840004009800000F1E020C0F80011704700006E
:10085000F0B40E4B1B680C46C3F30223C3F107052B
:10086000042D00D90425191D072901D2002300E019
:10087000DB1E012606FA05F1491E214099409E40E3
:10088000761E16403143F0BC00F072BF0CED00E064
:10089000064900F0070208684FF6FF03184040EAD7
:1008A0000220034A10430860704700000CED00E08E
:1008B0000000FA052DE9F0470F46050061D0434ED0
:1008C000306800F00700B84209D2306820F0070015
:1008D00038433060306800F00700B84251D12868D2
:1008E0003B4C810712D5400703D5606840F4E060B7
:1008F00060602878000703D5606840F4605060604D
:100900006068A96820F0F000084360602878C0079C
:1009100028D06868012810D02168022810D08907E3
:1009200000292EDA616821F0030101436160FFF7BD
:100930002BFF804641F288390DE021688903EFE7FB
:100940008901EDE7FFF720FFA0EB0801494502D937
:100950000320BDE8F0876068696800F00C00B0EB28
:10096000810FEFD1306800F00700B8420BD9306832
:1009700020F0070038433060306800F00700B842CC
:1009800001D00120E5E72878400705D56068E968CF
:1009900020F4E060084360602878000706D56068AE
:1009A000296920F4605040EAC100606000F018F846
:1009B0006168084AC1F30311515CC84006490860E8
:1009C00006480068FFF700FF0020C2E70020024051
:1009D00000100240CC1800080C0000200400002089
:1009E00012A185B00FC98DE80F0014A0144A006849
:1009F00004905168134801F00C03042B10D0082B0D
:100A00000ED1C1F38343C9031DF803000AD5516811
:100A100004AAC1F34041515C0A4A5043B0FBF1F0D3
:100A200005B0704708494843FAE70000020304058F
:100A3000060708090A0B0C0D0E0F1010010200002A
:100A40000010024000127A0000093D002DE9F84F25
:100A5000040070D02078C04DC00749D06868C0F34A
:100A60008100012807D06868C0F38100022809D1FD
:100A70006868C00306D52868800339D560680028F7
:100A8000E7D035E06068B0F5803F0BD010B1B0F52D
:100A9000A02F11D0286820F480302860286820F426
:100AA000802002E0286840F480302860606890B1BF
:100AB000FFF76AFE06460AE0286840F480202860B6
:100AC000F0E700BFFFF760FE801B642873D828683A
:100AD0008003F7D50CE0FFF757FE064605E000BFA0
:100AE000FFF752FE801B6428F0D828688003F7D4F3
:100AF00020789A4E80074FF001094FF0000839D551
:100B0000686810F00C0F07D06868C0F381000228F5
:100B100009D16868C00306D42868800714D5206905
:100B2000012808D110E02069B0B1C6F80090FFF7A5
:100B30002BFE074605E00AE1FFF726FEC01B022850
:100B4000C4D828688007F7D52868616920F0F800C4
:100B500040EAC10028600DE0C6F80080FFF714FEEF
:100B6000074604E0FFF710FEC01B022823D82868C0
:100B70008007F7D4207800072CD57948A169D9B12E
:100B8000C0F80090FFF700FE074604E0FFF7FCFD09
:100B9000C01B02280FD8686A8007F7D571484FF448
:100BA000FA510068B0FBF1F0009000BF0098411EC0
:100BB0000091FAD20EE080E0C0F80080FFF7E4FD7B
:100BC000074604E0FFF7E0FDC01B022875D8686AFD
:100BD0008007F7D42078400760D5E8690027C00077
:100BE00008D4E86940F08050E861E869012700F026
:100BF000805000905C480168C90513D401688346A1
:100C000041F480710160FFF7BFFD824606E000BF3E
:100C1000FFF7BAFDA0EB0A0064284ED8DBF800000D
:100C2000C005F5D5E06801280AD008B1052813D021
:100C3000286A20F001002862286A20F0040002E0FF
:100C4000286A40F001002862E06841F2883B98B1D0
:100C5000FFF79AFD82460BE0286A40F00400286204
:100C6000EEE700BFFFF790FDA0EB0A0159455AD807
:100C7000286A8007F6D50CE0FFF786FD824605E07E
:100C8000FFF782FDA0EB0A0159454CD8286A80077E
:100C9000F6D41FB1E86920F08050E861E06988B3BC
:100CA0006968C1F38101022944D00228C6F8608036
:100CB00004D0FFF769FD044638E034E0FFF764FD37
:100CC000074604E0FFF760FDC01B02282BD8286808
:100CD0008001F7D4206AB0F5803F05D16868A1682B
:100CE00020F4003008436860D4E9080108436968CB
:100CF00021F4741108436860C6F86090FFF744FD62
:100D0000044606E025E000BFFFF73EFD001B022879
:100D100009D828688001F7D51BE000BFFFF734FD34
:100D2000001B022802D90320BDE8F88F2868800143
:100D3000F4D40EE00128F7D06868226A00F480310C
:100D4000914204D1616A00F47010884201D0012000
:100D5000EAE70020E8E700000010024000004242FD
:100D6000800442420C0000200070004010B5401E7C
:100D7000B0F1807F01D3012010BD4FF0E02460610D
:100D80000F21601700F0F4FC0020A0610720206113
:100D9000002010BD70B590F83C20012A26D0012417
:100DA00080F83C40022280F83D2003685A689D6824
:100DB00022F070060A6832435A600D4B02689A426C
:100DC00008D0B2F1804F05D00A4B9A4202D00A4BAC
:100DD0009A4204D1496825F080031943916080F854
:100DE0003D40002180F83C10084670BD022070BDD7
:100DF000002C0140000400400008004010B5040031
:100E000003D094F83D0010B107E0012010BD002090
:100E100084F83C00204600F01FF8022084F83D00D2
:100E2000211D206800F014FB012084F8460084F89E
:100E30003E0084F83F0084F8400084F8410084F8C4
:100E4000420084F8430084F8440084F8450084F8A4
:100E50003D00002010BD000038B505460068B0F127
:100E6000804F21D11148C16941F00101C161C069C0
:100E7000104C00F0010000900D48206010206060D0
:100E800000208021C4E90201490021618900C4E9F0
:100E900005104FF44050E0612046FFF70DFB08B10C
:100EA000FFF712FAEC62656238BD000000100240E4
:100EB000080002405800002070B5044690F83C003D
:100EC000012817D0012584F83C50022084F83D0009
:100ED0002068826822F0770222F47F4282600868EC
:100EE000502830D00DDC20284DD005DC98B31028D8
:100EF0003BD148E0022070BD302844D0402834D196
:100F000039E0602828D0702806D0B0F5805F2CD05A
:100F1000B0F5005F29D10AE0CB68D1E90121206852
:100F200000F04EFB2068816841F0770109E0CB6852
:100F3000D1E90121206800F043FB2068816841F479
:100F40008041816011E0CA684968206800F0ECFBCC
:100F50005021206807E016E0CA684968206800F060
:100F6000F4FB6021206800F035FB84F83D50002040
:100F700084F83C0070BDCA684968206800F0D4FB62
:100F800040212068EFE7226801461046EBE77047F2
:100F900000B585B000210091019102910391006894
:100FA000B0F1804F1BD10F48816941F00801816188
:100FB0008069694600F0080004904FF4806000905A
:100FC0000220019003900848FFF7EEFA07484168B5
:100FD00021F4407141F0E06141F40071416005B0DD
:100FE00000BD000000100240000C01400000014064
:100FF00070B5044690F83C000D4601280AD0012047
:1010000084F83C0042B1042A18D0082A2AD00C2ABD
:101010004DD139E0022070BD206800F0E3FA20686D
:10102000816941F0080181612068816921F0040132
:101030008161206881692A69114311E0206800F00C
:10104000F9FA2068816941F4006181612068816951
:1010500021F480618161206881692A6941EA022165
:10106000816124E0206800F011FB2068C16941F033
:101070000801C1612068C16921F00401C1612068D3
:10108000C1692A69114311E0206800F02BFB206838
:10109000C16941F40061C1612068C16921F48061C6
:1010A000C1612068C1692A6941EA0221C161002049
:1010B00084F83C0070BD10B5040003D094F83D00E6
:1010C00010B107E0012010BD002084F83C0020464C
:1010D00000F01EF8022084F83D00211D206800F079
:1010E000B7F9012084F8460084F83E0084F83F00F8
:1010F00084F8400084F8410084F8420084F84300FA
:1011000084F8440084F8450084F83D00002010BDB8
:101110007047082100F0C4B8704700002DE9F04185
:1011200017460D0004460CD0042D11D0082D16D002
:1011300094F84100022819D094F84100012818D0F1
:101140009AE094F83E00022810D094F83E00F5E7AB
:1011500094F83F00022809D094F83F00EEE794F895
:101160004000022802D094F84000E7E70220BDE8E2
:10117000F0810FB9002B7FD14349444E444A0220ED
:1011800045B1042D16D0082D24D084F841000C2D33
:101190003AD164E084F83E00606A8162606A394650
:1011A000C662606A02632268606A3432FFF7B2F98D
:1011B000F0BB1FE084F83F00A06A8162A06A394654
:1011C000C662A06A02632268A06A3832FFF7A2F9F9
:1011D00070BB14E084F84000E06A8162E06A39463E
:1011E000C662E06A02632268E06A3C32FFF792F965
:1011F000F0B92FE02068C16841F4007103E0206875
:10120000C16841F48061C16001222946206800F074
:1012100055F920492068884203D1426C42F40042CB
:101220004264206888420AD0B0F1804F07D000E0C5
:1012300022E01949884202D01849884204D18168C5
:1012400001F00701062903D0016841F001010160A6
:1012500000208CE72068C16841F40061D3E7206B6F
:101260008162206B3946C662206B02632268206B64
:101270004032FFF74FF908B1012078E72068C168D4
:1012800041F48051BFE70000D7140008351500086D
:101290006D150008002C01400004004000080040CB
:1012A00070B5044600680D0006D0042D0AD0082D44
:1012B0003AD00C2D0DD13DE0C16821F40071C16020
:1012C000606A04E0C16821F48061C160A06AFEF731
:1012D000FDFF00222946206800F0F0F81D4B41F286
:1012E000111120688A10984209D1036A0B4206D175
:1012F000036A134203D1436C23F400434364206820
:10130000036A0B4206D1016A114203D1016821F040
:101310000101016001209DB1042D14D0082D15D0CC
:1013200084F84100002070BDC16821F40061C160F3
:10133000E06ACCE7C16821F48051C160206BC6E748
:1013400084F83E00EEE784F83F00EBE784F84000C5
:10135000E8E70000002C0140FEE7000010B58EB069
:1013600000240794089409940A940B941C2168465D
:101370000C94FEF729FF1D484FF08041C0E900148E
:101380000921C0E9024104618461FFF737FD08B11A
:1013900072B6FEE74FF48050079007A91348FFF795
:1013A0008BFD08B172B6FEE71048FFF784FE08B166
:1013B00072B6FEE70B940BA90C480C94FFF7EAFCFD
:1013C00008B172B6FEE76020CDE90004029408225D
:1013D000694606480494FFF70BFE08B172B6FEE7B3
:1013E0000248FFF7D5FD0EB010BD00001000002030
:1013F000FEE7FEE770477047FFF7CCB910B590B035
:1014000028216846FEF7E0FE14210AA8FEF7DCFE5C
:1014100002200090012004901020002405900794E1
:101420006846FFF713FB08B172B6FEE70F20CDE95F
:101430000A040C940D9400210AA80E94FFF73AFABE
:10144000002801D072B6FEE710B010BD7047000052
:10145000F0B50268164B174C174D4FF08047984275
:1014600005D0B84203D0A04201D0A84203D122F057
:1014700070064A683243984205D0B84203D0A04271
:1014800001D0A84203D122F44074CA6822434C69B7
:1014900022F08002224302608A68C2620A68826285
:1014A000984201D10969016301214161F0BD000049
:1014B000002C0140000400400008004010B501F07D
:1014C0001F030121046A99408C430462016A9A4017
:1014D0001143016210BD10B5446A0121626A824263
:1014E00005D121778069F8B984F83E101CE0A26A22
:1014F000824206D1022222778069A8B984F83F107F
:1015000012E0E26A824206D104222277806958B949
:1015100084F8401008E0226B824205D1082222772D
:10152000806908B984F841102046FFF7F2FD0020D9
:10153000207710BD10B5446A616A814201D1012053
:101540000DE0A16A814201D1022008E0E16A8142F6
:1015500001D1042003E0216B814201D108202077D2
:101560002046FFF7D9FD0020207710BD10B5446A52
:101570000121626A824203D1217784F83E1019E08A
:10158000A26A824204D10220207784F83F1011E041
:10159000E26A824204D10420207784F8401009E0F6
:1015A000226B824204D10820207784F8411001E0A8
:1015B00084F83D102046FFF7EAFC0020207710BD9C
:1015C00010B5846842EA032224F47F440A4322438C
:1015D000826010BD826822F070020A4342F0070167
:1015E0008160704730B5026A22F001020262026A2D
:1015F0004368846924F073050C682C4322F00205CB
:101600008A682A430A4DA8420BD122F00805CA680D
:1016100023F440732A434D6922F004021D438B6971
:101620002B434360846149684163026230BD00001E
:10163000002C014030B5026A22F010020262026AF8
:10164000436884690D6824F4E64444EA05248D68FF
:1016500022F0200242EA05120B4DA8420ED1CD68BD
:1016600022F0800242EA05124D6923F4406343EA06
:1016700085038D6922F0400243EA8503436084615B
:1016800049688163026230BD002C014030B5026AB6
:1016900022F480720262036A4268C46923F4007310
:1016A00024F073050C682C438D6843EA05230C4D28
:1016B000A8420ED1CD6823F4006343EA05234D69A7
:1016C00022F4405242EA05128D6923F4806342EA13
:1016D00005124260C4614968C163036230BD000005
:1016E000002C014030B5026A22F480520262046A82
:1016F0004268C3690D6823F4E64343EA05238D6815
:1017000024F4005444EA0534064DA84204D14D693E
:1017100022F4804242EA85124260C3614968016452
:10172000046230BD002C014010B5036A046A24F045
:1017300001040462846924F0F00444EA021423F0F2
:101740000A020A438461026210BD10B5036A23F0E5
:10175000100303628369046A23F4704343EA02328C
:1017600024F0A00343EA01118261016210BDFEE78B
:101770000907090E002804DB00F1E02080F80014BE
:10178000704700F00F0000F1E02080F8141D704752
:10179000E6B04FF00008CDF88481CDF88881CDF80F
:1017A0008C814FF4C2716846CDF89081FEF70CFD34
:1017B000FEF7F8FFFFF722FE4248816941F0080179
:1017C0008161816901F008016591416941F0010180
:1017D00041614069002200F00100659011460B2034
:1017E000FFF736F80B20FFF725F8FFF7B7FD0024C9
:1017F0004FF0040961AD032005EB800151F8041C92
:1018000045F82010401E0028F6DCFF2C09DAC4F150
:10181000FE008DF88601601C8DF885018DF88481AD
:1018200016E0B4F5FF7F07DAE01C8DF886814042B0
:101830008DF88501A01C09E0B4F53F7F08DCE01CB1
:101840008DF886018DF88581C4F53F708DF884018F
:1018500004EB090040F2FD2190FBF1F201FB1204C0
:101860009DF88601002280088DF886019DF885018B
:10187000062680088DF885019DF884016946800858
:101880008DF88401032755F82230172023FA00FC35
:101890005FEACC7C01D00E6000E00F60401E01F1D9
:1018A0000401F3D5521C042AEDDB61236A460821AA
:1018B0000548CDF88081FFF731FC0A20FEF762FE73
:1018C00099E7000000100240100000200000000016
:1018D000000000000102030406070809FC180008C4
:1018E0000000002010000000280100080C1900086A
:1018F00010000020F0060000440100080100000074
:0C19000010000000000000000024F400B3
:04000005080000ED02
:00000001FF
