:020000040800F2
:10000000580B0020890100080F150008371200085E
:100010000D1500088F0200085D17000800000000A1
:1000200000000000000000000000000013150008A0
:1000300091020008000000001115000815150008C5
:10004000A3010008A3010008A3010008A301000800
:10005000A3010008A3010008A3010008A3010008F0
:10006000A3010008A3010008A3010008A3010008E0
:10007000A3010008A3010008A3010008A3010008D0
:10008000A3010008A3010008A3010008A3010008C0
:10009000A3010008A3010008A3010008A3010008B0
:1000A000A3010008A3010008A3010008A3010008A0
:1000B000A3010008A3010008A3010008A301000890
:1000C000A3010008A3010008A3010008A301000880
:1000D000A301000851170008A3010008A3010008AC
:1000E000A3010008A3010008A301000800F002F822
:1000F00000F03AF80AA090E8000C82448344AAF188
:100100000107DA4501D100F02FF8AFF2090EBAE885
:100110000F0013F0010F18BFFB1A43F0010318473B
:10012000301E0000501E0000103A24BF78C878C16D
:10013000FAD8520724BF30C830C144BF04680C60ED
:10014000704700000023002400250026103A28BF35
:1001500078C1FBD8520728BF30C148BF0B60704739
:100160001FB51FBD10B510BD00F058F81146FFF7C0
:10017000F7FF01F07FFC00F076F803B4FFF7F2FF21
:1001800003BC00F07DF8000009488047094800479B
:10019000FEE7FEE7FEE7FEE7FEE7FEE7FEE7FEE737
:1001A000FEE7FEE704480549054A064B7047000094
:1001B00069150008ED00000858050020580B0020C4
:1001C00058070020580700204FF0000200B51346E2
:1001D00094469646203922BFA0E80C50A0E80C5067
:1001E000B1F12001BFF4F7AF090728BFA0E80C5018
:1001F00048BF0CC05DF804EB890028BF40F8042B11
:1002000008BF704748BF20F8022B11F0804F18BF7D
:1002100000F8012B7047704770477047754600F033
:100220002BF8AE4605006946534620F00700854688
:1002300018B020B5FFF7B6FFBDE820404FF000062C
:100240004FF000074FF000084FF0000B21F00701BE
:10025000AC46ACE8C009ACE8C009ACE8C009ACE801
:10026000C0098D46704710B50446AFF300802046A4
:10027000BDE81040FFF781BF00487047F40400203C
:1002800001491820ABBEFEE7260002007047FEE7DA
:10029000704710B590F821100022022905D00421E2
:1002A000816380F82020012010BD01680B6823F0D5
:1002B0000E030B6001680B6823F001030B6090F8DC
:1002C0004030C46B012101FA03F3636080F8211010
:1002D00080F82020104610BD10B590F821100024A1
:1002E000022903D00421816301243DE001680A68EA
:1002F00022F00E020A6001680A6822F001020A6018
:100300001A4A0168914201D1012121E0174A1432B1
:10031000914201D110211BE0144A2832914201D1AF
:10032000891515E0114A3C32914201D189140FE040
:100330000E4A5032914202D14FF4803108E00B4A0C
:100340006432914202D14FF4801101E04FF080718C
:10035000064A083A5160012180F82110002180F8F6
:100360002010416B01B18847204610BD08000240B3
:100370002DE9F84FDFF8B891002409F1040A0AF1D9
:10038000040B23460F270BF1040EC9E00125A540FD
:100390002A40AA427DD1674ED1F804C0ACEB0608D2
:1003A000B44532D014DCBCF1030F3AD009DCBCF107
:1003B000000F2AD0BCF1010F1CD0BCF1020F31D1CB
:1003C0001DE0BCF1110F17D0BCF1120F2AD119E0BA
:1003D000B8F5881F19D006DCB8F5803F15D0B8F500
:1003E000801F1FD111E0B8F5001F0ED0B8F5041F13
:1003F00018D10AE0CB6815E0CB681B1D12E0CB6872
:1004000008330FE0CB680C330CE08B682BB1012B69
:100410004FF0080303D0456104E0042302E00561C6
:1004200000E00023FF2A01D8064601E000F104069F
:100430004FEA840501D9A5F12005D6F8008007FA16
:1004400005FC28EA0C0803FA05F548EA0508C6F891
:1004500000804D68ED0062D5374DAE6946F001066B
:10046000AE61AD6924F0030605F001050095334D3A
:1004700006EB050CDCF80850A607360F07FA06F85D
:1004800025EA0805DFF8B880404503D14FF00008A1
:1004900017E044E0DFF8AC80404502D14FF001089E
:1004A0000FE0DFF8A480404502D14FF0020808E0D9
:1004B000DFF89880404502D14FF0030801E04FF08B
:1004C000040808FA06F848EA0508CCF808804D68E0
:1004D000D9F80060ED034D4601D5164300E0964380
:1004E0002E604D68DAF80060AD03554601D516431D
:1004F00000E096432E604D68DBF80060ED025D463B
:1005000001D5164300E096432E604D68DEF800608A
:10051000AD02754601D5164300E096432E60641C7B
:100520000D682A46E5407FF431AFBDE8F88F000042
:1005300000040140000011100010024000000140C2
:1005400000080140000C014000100140001401406F
:10055000C26821EA02030A4043EA0241016170478E
:100560000AB1016170470904FBE700000148806897
:10057000704700000C00002070B5040025D094F8EE
:100580003D00002520B984F83C50204600F04EF98B
:10059000242084F83D002068016821F001010160F9
:1005A0002068016841F4004101602068016821F47D
:1005B0000041016000F08EFA4D4A6168914201D815
:1005C0004C4900E04C49884201D2012070BD4B49A2
:1005D0002368B0FBF1F15E6826F03F060E435E60D3
:1005E0006368934206D94FF4967359434FF47A7374
:1005F000B1FBF3F12368491C1E6A26F03F06314324
:1006000019626168914210D84900401EB0FBF1F2B6
:10061000521CC2F30B02042A01D2042022E0B0FBD8
:10062000F1F0401CC0F30B001CE0A268F2B301EB38
:10063000C10303EB0116431EB3FBF6F35B1C43F44B
:1006400080431B0549D092B301EBC10202EB0111BB
:10065000401EB0FBF1F0401CC0F30B0040F48040A2
:1006600040F400402168CA694CF6FF739A43104376
:10067000C861D4E9071001432068026822F0C00273
:1006800011430160D4E9030101432068826848F204
:10069000FF339A4311438160D4E90501084321687F
:1006A000CA6822F0FF021043C86001E00EE016E0C5
:1006B0002068016841F0010101602564202084F870
:1006C0003D00256384F83E50002070BD01EB4106DB
:1006D000431EB3FBF6F35B1CB3E70120C2E701EB5B
:1006E0004101401EB0FBF1F0401CC0F30B00B7E726
:1006F000A086010080841E0000093D0040420F00DA
:100700002DE9F84F1F4690468A460446DDF82890AA
:10071000FFF72CFF054694F83D0020287FD11923D0
:10072000012240492046009500F012FE002876D1B3
:1007300094F83C00012872D0012084F83C00206825
:100740000168C90703D1016841F001010160206817
:10075000016821F400610160212084F83D0010202F
:1007600084F83E0000262664C4F824806785608DE6
:1007700020852D48E0622B464A465146204600F02F
:1007800073FD90B9206841698069009036E02A467F
:100790004946204600F05BFE50B1206C042804D18D
:1007A0002068016841F4007101600120BDE8F88F04
:1007B000606A216800780861606A401C6062618D2F
:1007C000491E6185218D491E89B2218522685369A0
:1007D000DB435B070BD451B100781061606A401CA9
:1007E0006062608D401E6085208D401E20852A46F7
:1007F0004946204600F086FD0028CED1208D0028F5
:10080000C5D154F83D0B016841F40071016020200E
:1008100004F81E09E67766770020C7E7FFE70220A5
:10082000C4E70000020010000000FFFF10B586B012
:100830000021009101910291039100680F498842C3
:100840001AD10F4CA06940F00800A061A069694668
:1008500000F008000490C0200090122001900320B6
:1008600003900848FFF784FDE06940F40010E06160
:10087000E06900F40010049006B010BD0054004080
:1008800000100240000C01400248816802781144C7
:10089000816070470C000020074810B5016841F0E6
:1008A00010010160032000F06DF80F2000F006F841
:1008B00000F024F8002010BD0020024070B50D4D5E
:1008C00004464FF47A712878B1FBF0F00A490968C0
:1008D000B1FBF0F000F0E4FA48B9102C07D2002286
:1008E0002146501E00F02EF800206C6070BD0120E3
:1008F00070BD00000C00002018000020094808B559
:10090000816941F001018161816901F0010100917A
:10091000C16941F08051C161C06900F08050009010
:1009200008BD000000100240002809DB00F01F0293
:10093000012191404009800000F1E020C0F8001141
:1009400070470000F0B40E4B1B680C46C3F3022343
:10095000C3F10705042D00D90425191D072901D26B
:10096000002300E0DB1E012606FA05F1491E2140A6
:1009700099409E40761E16403143F0BC00F0EFBE19
:100980000CED00E0064900F0070208684FF6FF038F
:10099000184040EA0220034A1043086070470000F4
:1009A0000CED00E00000FA052DE9F0470F460500C8
:1009B00061D0434E306800F00700B84209D2306879
:1009C00020F0070038433060306800F00700B8427C
:1009D00051D128683B4C810712D5400703D5606888
:1009E00040F4E06060602878000703D5606840F458
:1009F000605060606068A96820F0F00008436060A3
:100A00002878C00728D06868012810D021680228FB
:100A100010D0890700292EDA616821F00301014313
:100A20006160FFF7A3FD804641F288390DE021683F
:100A30008903EFE78901EDE7FFF798FDA0EB0801D7
:100A4000494502D90320BDE8F0876068696800F075
:100A50000C00B0EB810FEFD1306800F00700B84216
:100A60000BD9306820F0070038433060306800F060
:100A70000700B84201D00120E5E72878400705D5F6
:100A80006068E96820F4E060084360602878000747
:100A900006D56068296920F4605040EAC1006060B2
:100AA00000F038F86168084AC1F30311515CC8408E
:100AB0000649086006480068FFF700FF0020C2E70B
:100AC0000020024000100240361F000818000020DD
:100AD000100000200448054900684968044AC1F331
:100AE0000221515CC84070471800002000100240ED
:100AF000461F00080448054900684968044AC1F3D4
:100B0000C221515CC840704718000020001002400C
:100B1000461F000812A185B00FC98DE80F0014A070
:100B2000144A006804905168134801F00C03042B28
:100B300010D0082B0ED1C1F38343C9031DF8030065
:100B40000AD5516804AAC1F34041515C0A4A504396
:100B5000B0FBF1F005B0704708494843FAE70000E0
:100B600002030405060708090A0B0C0D0E0F1010EE
:100B7000010200000010024000127A0000093D004E
:100B80002DE9F84F040070D02078C04DC00749D03F
:100B90006868C0F38100012807D06868C0F381004D
:100BA000022809D16868C00306D52868800339D5B2
:100BB00060680028E7D035E06068B0F5803F0BD072
:100BC00010B1B0F5A02F11D0286820F48030286033
:100BD000286820F4802002E0286840F480302860F3
:100BE000606890B1FFF7C2FC06460AE0286840F44E
:100BF00080202860F0E700BFFFF7B8FC801B642866
:100C000073D828688003F7D50CE0FFF7AFFC0646E1
:100C100005E000BFFFF7AAFC801B6428F0D8286815
:100C20008003F7D420789A4E80074FF001094FF0E7
:100C3000000839D5686810F00C0F07D06868C0F359
:100C40008100022809D16868C00306D4286880079B
:100C500014D52069012808D110E02069B0B1C6F888
:100C60000090FFF783FC074605E00AE1FFF77EFCF2
:100C7000C01B0228C4D828688007F7D52868616996
:100C800020F0F80040EAC10028600DE0C6F80080BE
:100C9000FFF76CFC074604E0FFF768FCC01B022866
:100CA00023D828688007F7D4207800072CD5794806
:100CB000A169D9B1C0F80090FFF758FC074604E0DD
:100CC000FFF754FCC01B02280FD8686A8007F7D5CD
:100CD00071484FF4FA510068B0FBF1F0009000BF8A
:100CE0000098411E0091FAD20EE080E0C0F800802A
:100CF000FFF73CFC074604E0FFF738FCC01B022866
:100D000075D8686A8007F7D42078400760D5E8690D
:100D10000027C00008D4E86940F08050E861E86925
:100D2000012700F0805000905C480168C90513D489
:100D30000168834641F480710160FFF717FC824629
:100D400006E000BFFFF712FCA0EB0A0064284ED8B3
:100D5000DBF80000C005F5D5E06801280AD008B12D
:100D6000052813D0286A20F001002862286A20F0A4
:100D7000040002E0286A40F001002862E06841F2C5
:100D8000883B98B1FFF7F2FB82460BE0286A40F0FF
:100D900004002862EEE700BFFFF7E8FBA0EB0A01C2
:100DA00059455AD8286A8007F6D50CE0FFF7DEFBD4
:100DB000824605E0FFF7DAFBA0EB0A0159454CD863
:100DC000286A8007F6D41FB1E86920F08050E861F6
:100DD000E06988B36968C1F38101022944D002281F
:100DE000C6F8608004D0FFF7C1FB044638E034E069
:100DF000FFF7BCFB074604E0FFF7B8FBC01B022867
:100E00002BD828688001F7D4206AB0F5803F05D13F
:100E10006868A16820F4003008436860D4E90801DC
:100E20000843696821F4741108436860C6F860904B
:100E3000FFF79CFB044606E025E000BFFFF796FBAA
:100E4000001B022809D828688001F7D51BE000BFE5
:100E5000FFF78CFB001B022802D90320BDE8F88FA6
:100E600028688001F4D40EE00128F7D06868226A6F
:100E700000F48031914204D1616A00F4701088421C
:100E800001D00120EAE70020E8E70000001002405E
:100E900000004242800442421800002000700040DE
:100EA00010B5401EB0F1807F01D3012010BD4FF07E
:100EB000E02460610F21601700F051FC0020A06168
:100EC00007202061002010BD70477047F8B5026808
:100ED00004461068D168536910F00F0F4FF00005F9
:100EE00053D003F0010601F4907737435FD0C20777
:100EF00005D0CA0503D5226C42F0010222644207E4
:100F000005D5DA0703D0226C42F002022264820780
:100F100005D5DA0703D0226C42F0040222640207EE
:100F200007D501F02002324303D0226C42F00802C0
:100F30002264226C002A34D0800604D5880602D5AB
:100F4000204600F032FB20684069216CC0F380101D
:100F5000090700D430B3204600F00FFB2068416938
:100F600049061BD5416921F040014161A06BA8B140
:100F700058494163A06BFFF7AFF9002811D0A06B6F
:100F8000416B01B0BDE8F040084783060FD58B06E2
:100F90000DD52046BDE8F84000F007BB2046FFF71E
:100FA00094FFF8BD2046FFF790FF2564F8BD266B3F
:100FB0002023012E52D1C60650D5CE064ED510683C
:100FC00050680090506940062AD5A16B08684068B7
:100FD0000004000CEAD0A68D8642E7D9E085886936
:100FE000202818D0D06820F48070D0602068416933
:100FF00021F0010141612068416921F04001416116
:1010000084F83E3025632068C16821F01001C1607A
:10101000A06BFFF73EF9A08DE18D401A81B219E077
:10102000A08DE18D401A81B2E08D0028BED000294C
:10103000BCD0D06820F49070D0602068426922F063
:101040000102426184F83E3025632068C26822F0C4
:101050001002C2602046FFF737FFF8BD05062BD50A
:101060000D0629D594F83D002128F6D1A068B0F5E9
:10107000805F01D12069B0B1206A411C21622168E2
:1010800000784860E08C401E0004000CE084E4D14D
:101090002068C16821F08001C1602068C16841F00A
:1010A0004001C160F8BD206A0088C0F308005060AC
:1010B000206A801C2062E5E74006F3D54806F1D59A
:1010C000D168204621F04001D16084F83D3000F025
:1010D000B1F8F8BD6B15000870B5040004D094F8A1
:1010E0003D00002510B106E0012070BD84F83C50A1
:1010F000204600F023F8242084F83D002068C168D1
:1011000021F40051C160204600F0AAFA206801696C
:1011100021F4904101612068416921F02A01416177
:101120002068C16841F40051C1602564202084F822
:101130003D0084F83E00002070BD000030B585B051
:101140000024009401940294039400681849884292
:101150002CD11848816941F480418161816901F491
:1011600080410491816941F0040181618069124DDF
:1011700000F0040004904FF40070009002200190F1
:101180000320039069462846FFF7F2F82815CDE9B9
:101190000004694628460294FFF7EAF80022114647
:1011A0002520FFF7CFFB2520FFF7BEFB05B030BDA4
:1011B00000380140001002400008014090F83E3025
:1011C000202B0ED159B152B190F83C30012B08D0F0
:1011D000012380F83C300023036300F09DBA012016
:1011E000704702207047000070B50F490068096819
:1011F000884217D10D4C217960780D4A0244401C79
:101200006070012511702A2900D1A570607820280E
:1012100001D30020607005490122091D0248FFF733
:10122000CDFFE57070BD00007000002000000020C0
:10123000D40400207047FEE701684A69D243520592
:101240000FD46FF480624A61002140F8301F2022E1
:1012500042738173026942F004020261017301204A
:101260007047002070470000F8B50446C06A1E466B
:101270000D461746082807D0012805D010F5803FF5
:1012800002D0206B122804D12068016841F48071DB
:101290000160134600224FF001112046009600F035
:1012A00057F840B120680068C00502D54FF40070BF
:1012B00020640320F8BD2069B0F5804F0ED00620D1
:1012C000216800EAD51040F0F000086133463A4644
:1012D0000B49204600F070F878B902E005F0FE00F6
:1012E00000E0E8B221680861054933463A46891FA3
:1012F000204600F061F80028DCD00120F8BD000095
:101300000800010070B516460D4604460DE0204663
:10131000FFF792FF08B1012070BD681C05D0FFF7F0
:1013200025F9801BA84207D835B120684069C04321
:101330004007ECD4002070BD002044F8300F20217D
:101340006173A073216941F0200121612073E2E7FC
:101350002DE9F0471E4690460D460446C1F3074767
:10136000DDF8209008E0701C06D0FFF7FFF8A0EB36
:101370000900B0420FD876B12068012F18D08069DB
:1013800025EA00000004000C14D000214145EAD0F9
:101390000020BDE8F087002044F8300F2021617361
:1013A000A073216941F02001216120730120F0E741
:1013B0004069E5E70121E9E72DE9F0479A469146C2
:1013C0000E46044600254FF02008C1F3074725E0EC
:1013D00020684069C043400514D42068016841F486
:1013E0000071016021686FF480604861256384F8B2
:1013F0003D8084F83E50206C40F00400206484F866
:101400003C501FE0B9F1FF3F08D0FFF7AFF8A0EB69
:101410000A0149450CD8B9F1000F09D02068012F05
:1014200013D0806926EA00000004000C0BD0CFE73F
:1014300044F8305F84F80D80A573206940F02000E7
:10144000206125730120BDE8F0874069EAE770B5A7
:1014500016460D4604460DE02046FFF7EDFE08B1A6
:10146000012070BD681C05D0FFF780F8801BA842E2
:1014700007D835B120684069C0430006ECD400208D
:1014800070BD002044F8300F20216173A0732169E2
:1014900041F0200121612073E2E7000070B586B0C1
:1014A000002418480094019402940394816941F047
:1014B00010018161816901F010010491816941F09D
:1014C00004018161816901F004010491816941F0A5
:1014D0000801816180690C4E00F008004FF400554E
:1014E0000490002229463046FFF73AF80120009583
:1014F000CDE901040220039069463046FEF738FF2B
:1015000006B070BD0010024000100140FEE7FEE78B
:1015100070477047FFF7B8B910B590B028216846FA
:10152000FEF752FE14210AA8FEF74EFE022000909C
:101530000120049010200024059007946846FFF7CE
:101540001FFB08B172B6FEE70F20CDE90A040C9428
:101550000D9400210AA80E94FFF726FA002801D066
:1015600072B6FEE710B010BD704710B5406A00219A
:10157000C185C184FFF7A9FC10BD0168CA6822F4C7
:101580009072CA6001684A6922F001024A61016BE7
:10159000012904D10168CA6822F01002CA60202122
:1015A00080F83E1000210163704708B590F83E10A6
:1015B000222901D0022008BD82684FF480539A424C
:1015C00001D1016921B1816A9A421BD04AB10AE076
:1015D0000268816A5268C2F308020A80816A891C23
:1015E00008E0026972B10268526802F07F020A7074
:1015F000816A491C8162C18D491E0904090CC1859B
:1016000003D019E002685268F1E70168CA6822F065
:101610002002CA600168CA6822F48072CA60016848
:101620004A6922F001024A61202180F83E10016BD4
:10163000012903D0FFF7D8FD002008BD0021016378
:101640000168CA6822F01002CA6001680A68D206FE
:1016500002D50A6849680091818DFFF735FCEBE7F8
:1016600070B5044600680169E26821F440511143F5
:1016700001612169A0680843616908432168CA685B
:1016800041F20C639A430243CA6020684169A2692F
:1016900021F44071114341611E492068884202D102
:1016A000FFF728FA01E0FFF715FA00EBC00101EBA4
:1016B0000012606864218000B2FBF0F3B3FBF1F329
:1016C0006FF018067343B2FBF0F5B2FBF0F605EBD2
:1016D0008305322303EB0515B5FBF1F5B6FBF1F6F7
:1016E00005F0F00505EB0615B2FBF0F6B2FBF0F0E5
:1016F000B0FBF1F06FF01802504306EB800003EBF3
:101700000010B0FBF1F0216800F00F002844886061
:1017100070BD00000038014081628285C2850021D1
:101720000164222280F83E2080F83C100168CA68DB
:1017300042F48072CA6001684A6942F001024A615B
:101740000068C16841F02001C160002070470000BE
:101750000148FFF7BBBB000070000020FEE709074F
:10176000090E002804DB00F1E02080F80014704727
:1017700000F00F0000F1E02080F8141D7047000019
:1017800010B500F00FF820210448FEF71DFD0448B5
:101790000021817141714170017010BDD40400209D
:1017A0000000002010B54FF480610348FEF70CFDE7
:1017B000BDE8104000F036B8B40000202DE9F84331
:1017C0000D460646012420211548FEF7FDFC4FF486
:1017D0007A77DFF84C8014E0202C0CD3104A2023B9
:1017E0007821A2F593600097FEF78AFF20210C482C
:1017F000FEF7EAFC012416F8011B08F80410641C2B
:10180000E4B26D1EE8D2002C07D0054A23467821A9
:10181000A2F593600097FEF773FFBDE8F883000020
:10182000B40400202DE9FE4322A14FF48065D1E9E4
:101830000001CDE901011E4E0124052101A8FFF799
:10184000BDFF7F2000F086F9202106F58060FEF7BD
:10185000BBFC402006F580674FF47A7838708146EB
:1018600016E0202C0FD3154A20237821A2F593608F
:10187000CDF80080FEF744FF20211048FEF7A4FCBD
:1018800087F80090012416F8010B3855641CE4B267
:101890006D1EE6D2002C08D0084A23467821A2F516
:1018A0009360CDF80080FEF72BFFBDE8FE830000BB
:1018B000B40000202200FF2100000000B40400203A
:1018C0002DE9F04F0D46804680282FD2402D2DDA8D
:1018D000002D2BDBA8F17900002827DCA5F13700CB
:1018E000002823DC202A21D37E2A1FD8203A02EBAD
:1018F0008200DFF83CB04FEA400A002404EB0A0102
:101900001BF90170002605EB0409380604D5494689
:1019100008EB060000F02CF87800761C76B247B28F
:10192000082EF2DB641C64B20A2CE7DBBDE8F08F02
:10193000801B000870B504460078164608300D4636
:1019400080280BD3287800210A30402804D3217046
:101950002970FFF727FF01E028702170297820788F
:101960003246FFF7ADFF20780830207070BD0000D0
:10197000802812D2002910DB40290EDACA1701EBA9
:101980005272D21000EBC212044801F00703104457
:101990000121027899400A4302707047B400002088
:1019A00010B54FF480610748FEF70EFC0648002191
:1019B000A0F807104172BDE8104020210348FEF74F
:1019C00003BC0000B400002000000020B40400208C
:1019D00010B5AE2000F0BEF8D52000F0BBF8802096
:1019E00000F0B8F8A82000F0B5F83F2000F0B2F8F9
:1019F000D32000F0AFF8002000F0ACF8402000F059
:101A0000A9F88D2000F0A6F8142000F0A3F82020FB
:101A100000F0A0F8002000F09DF8A12000F09AF856
:101A2000C82000F097F8DA2000F094F8122000F0B7
:101A300091F8812000F08EF8CF2000F08BF8D920AB
:101A400000F088F8F12000F085F8DB2000F082F843
:101A5000402000F07FF8A42000F07CF8A62000F0E1
:101A600079F82E2000F076F8BDE81040AF2000F0A5
:101A700071B80000FEF710FFFFF74EFDFFF70EFDF7
:101A80002E482D49002401602D49C0E901144FF46E
:101A90008041C0E9034144618461C4610462FEF78E
:101AA0006BFD08B172B6FEE7244826495430016048
:101AB0004FF41651C0E901140C21C460C0E904417F
:101AC0008461C461FFF708FB08B172B6FEE71B48EA
:101AD00001221D495430FFF771FBFFF761FFFFF74B
:101AE00077FFFFF75FFE184DDFF86080184E4FF468
:101AF00000572D1FE8780128FCD1A87810B1FFF716
:101B00003FFEAC7039464046FEF722FD0EE00E491E
:101B1000325C891C481EFFF70DFF2878401CC0B2BC
:101B20002870202800D32C70FFF77CFE2878697875
:101B30008842ECD1EC70DDE7005400401C0000202E
:101B4000A086010000380140040000200010014080
:101B5000D4040020084908B50022A1F807204A72E1
:101B6000C91D02230A70487064200A46009078213B
:101B70000248FEF7C5FD08BD000000201C00002043
:101B800000000000000000000000101010101010F5
:101B90000010000028282800000000000000242475
:101BA0007C24487C48480000385450381454543839
:101BB0001000205458302854140800001028281011
:101BC00034484834000010101000000000000000ED
:101BD00008102020202020201008201008080808C5
:101BE0000808102010381028000000000000000035
:101BF00010107C1010000000000000000000001019
:101C0000101000000000003800000000000000007C
:101C10000000001000000808101010102020000024
:101C200038444454444444380000103050101010DC
:101C300010100000384444040810207C0000384490
:101C4000041804044438000008182828487C0808B0
:101C500000007C4040780404443800003844407858
:101C60004444443800007C04081010202020000068
:101C700038444438444444380000384444443C0424
:101C800044380000000010000000001000000000B8
:101C9000001000000010101000000C3040300C004C
:101CA00000000000007C007C0000000000006018C4
:101CB00004186000000038440408101000100000F0
:101CC00038444C545C404038000010282828287CB8
:101CD0004444000078444478444444780000384444
:101CE00040404040443800007048444444444870F8
:101CF00000007C40407C4040407C00007C404078BC
:101D0000404040400000384440405C4444380000BB
:101D10004444447C444444440000381010101010E3
:101D2000103800000404040404044438000044484B
:101D30005060504848440000404040404040407C93
:101D40000000446C6C5444444444000044646454B3
:101D5000544C4C440000384444444444443800004B
:101D6000784444447840404000003844444444446B
:101D700054380400784444447848484400003844C7
:101D800040300804443800007C101010101010106F
:101D9000000044444444444444380000444444283B
:101DA00028281010000044445454546C2828000083
:101DB00044282810102828440000444428281010E3
:101DC000101000007C0408101020407C0000181047
:101DD00010101010101010182020101010100808EB
:101DE000000030101010101010101030102828446F
:101DF000000000000000000000000000000000FEE5
:101E000020100000000000000000000038443C44A6
:101E10004C340000404058644444645800000000C2
:101E200038444040443800000404344C44444C34AA
:101E30000000000038447C40443800000C107C1046
:101E40001010101000000000344C44444C3404784E
:101E50004040586444444444000010007010101086
:101E600010100000100070101010101010E0404012
:101E700048506050484400007010101010101010AE
:101E8000000000007854545454540000000058647A
:101E900044444444000000003844444444380000B2
:101EA000000058644444645840400000344C4444AA
:101EB0004C340404000058644040404000000000DE
:101EC0003844300844380000202078202020201892
:101ED00000000000444444444C34000000004444EA
:101EE00028282810000000005454546C28280000B2
:101EF0000000442810102844000000004444282812
:101F00001010106000007C081020407C00001810A9
:101F10001010202010101018101010101010101099
:101F2000101030101010080810101030000000744D
:101F30004C00000000000000000000000000010252
:101F40000304060708090000000001020304000062
:101F5000701F0008000000201C000000280100087D
:101F60008C1F00081C0000203C0B000044010008EE
:101F70000000000000000000000000000100000060
:0C1F800010000000000000000024F4002D
:04000005080000ED02
:00000001FF
