:020000040800F2
:10000000B806002089010008470D0008750C00089B
:10001000450D00088F020008590E0008000000007E
:100020000000000000000000000000004B0D000870
:100030009102000800000000490D00084D0D000865
:10004000A3010008A3010008A3010008A301000800
:10005000A3010008A3010008930200089902000808
:10006000A30100089F020008A3010008A3010008E3
:10007000A3010008A3010008A3010008A3010008D0
:10008000A3010008A3010008A3010008A3010008C0
:10009000A3010008A3010008A3010008A3010008B0
:1000A000A3010008A3010008A3010008A3010008A0
:1000B000A3010008A3010008A3010008A301000890
:1000C000A3010008A3010008A3010008A301000880
:1000D000A3010008A3010008A3010008A301000870
:1000E000A3010008A3010008A301000800F002F822
:1000F00000F03AF80AA090E8000C82448344AAF188
:100100000107DA4501D100F02FF8AFF2090EBAE885
:100110000F0013F0010F18BFFB1A43F0010318473B
:10012000E00D0000000E0000103A24BF78C878C12E
:10013000FAD8520724BF30C830C144BF04680C60ED
:10014000704700000023002400250026103A28BF35
:1001500078C1FBD8520728BF30C148BF0B60704739
:100160001FB51FBD10B510BD00F058F81146FFF7C0
:10017000F7FF00F083FE00F076F803B4FFF7F2FF1C
:1001800003BC00F07DF8000009488047094800479B
:10019000FEE7FEE7FEE7FEE7FEE7FEE7FEE7FEE737
:1001A000FEE7FEE704480549054A064B7047000094
:1001B0009D0D0008ED000008B8000020B8060020E2
:1001C000B8020020B80200204FF0000200B513462C
:1001D00094469646203922BFA0E80C50A0E80C5067
:1001E000B1F12001BFF4F7AF090728BFA0E80C5018
:1001F00048BF0CC05DF804EB890028BF40F8042B11
:1002000008BF704748BF20F8022B11F0804F18BF7D
:1002100000F8012B7047704770477047754600F033
:100220002BF8AE4605006946534620F00700854688
:1002300018B020B5FFF7B6FFBDE820404FF000062C
:100240004FF000074FF000084FF0000B21F00701BE
:10025000AC46ACE8C009ACE8C009ACE8C009ACE801
:10026000C0098D46704710B50446AFF300802046A4
:10027000BDE81040FFF781BF0048704754000020E0
:1002800001491820ABBEFEE7260002007047FEE7DA
:100290007047012000F054B8022000F051B8082047
:1002A00000F04EB870B5044600F04CF90546601CED
:1002B00002D004480078044400F044F9401BA042F6
:1002C000FAD370BD0000002070B51B4E4FF40051F2
:1002D000012829D0022829D0082824D101220D463E
:1002E000304600F029F9154C0220401CA042FCDBEE
:1002F00000222946304600F01FF90220401CA0428F
:10030000FCDB01222946304600F016F90220401C91
:10031000A042FCDB00222946304600F00DF9022005
:10032000401CA042FCDB70BD002200E001223046F0
:10033000BDE8704000F000B900100140A086010047
:10034000044910B50A68024202D00860FFF7BCFFFA
:1003500010BD0000140401402DE9F84FDFF8B891FA
:10036000002409F1040A0AF1040B23460F270BF1BC
:10037000040EC9E00125A5402A40AA427DD1674E5E
:10038000D1F804C0ACEB0608B44532D014DCBCF1A3
:10039000030F3AD009DCBCF1000F2AD0BCF1010FE9
:1003A0001CD0BCF1020F31D11DE0BCF1110F17D0F0
:1003B000BCF1120F2AD119E0B8F5881F19D006DC5C
:1003C000B8F5803F15D0B8F5801F1FD111E0B8F502
:1003D000001F0ED0B8F5041F18D10AE0CB6815E055
:1003E000CB681B1D12E0CB6808330FE0CB680C33E1
:1003F0000CE08B682BB1012B4FF0080303D0456153
:1004000004E0042302E0056100E00023FF2A01D894
:10041000064601E000F104064FEA840501D9A5F182
:100420002005D6F8008007FA05FC28EA0C0803FA34
:1004300005F548EA0508C6F800804D68ED0062D56C
:10044000374DAE6946F00106AE61AD6924F0030692
:1004500005F001050095334D06EB050CDCF808505E
:10046000A607360F07FA06F825EA0805DFF8B88070
:10047000404503D14FF0000817E044E0DFF8AC80BE
:10048000404502D14FF001080FE0DFF8A48040455D
:1004900002D14FF0020808E0DFF89880404502D111
:1004A0004FF0030801E04FF0040808FA06F848EAA4
:1004B0000508CCF808804D68D9F80060ED034D467A
:1004C00001D5164300E096432E604D68DAF80060CF
:1004D000AD03554601D5164300E096432E604D68A6
:1004E000DBF80060ED025D4601D5164300E096435F
:1004F0002E604D68DEF80060AD02754601D51643EA
:1005000000E096432E60641C0D682A46E5407FF4A7
:1005100031AFBDE8F88F0000000401400000111069
:10052000001002400000014000080140000C0140A2
:1005300000100140001401400AB101617047090434
:10054000FBE70000014880687047000000000020C1
:1005500002488168027811448160704700000020E1
:10056000074810B5016841F010010160032000F058
:1005700075F80F2000F006F800F024F8002010BDF8
:100580000020024070B50D4D04464FF47A71287872
:10059000B1FBF0F00A490968B1FBF0F000F0ECFAA9
:1005A00048B9102C07D200222146501E00F036F820
:1005B00000206C6070BD012070BD000000000020B4
:1005C0000C0000200C4808B5816941F001018161EF
:1005D000816901F001010091C16941F08051C1615F
:1005E000C06900F0805000900448416821F0E0614B
:1005F00041F00071416008BD001002400000014060
:10060000002809DB00F01F02012191404009800011
:1006100000F1E020C0F8001170470000F0B40E4B6C
:100620001B680C46C3F30223C3F10705042D00D950
:100630000425191D072901D2002300E0DB1E012635
:1006400006FA05F1491E214099409E40761E16404B
:100650003143F0BC00F001BC0CED00E0064900F0B5
:10066000070208684FF6FF03184040EA0220034AD9
:1006700010430860704700000CED00E00000FA0530
:100680002DE9F0470F46050061D0434E306800F079
:100690000700B84209D2306820F0070038433060C4
:1006A000306800F00700B84251D128683B4C810700
:1006B00012D5400703D5606840F4E0606060287898
:1006C000000703D5606840F4605060606068A96806
:1006D00020F0F000084360602878C00728D06868E0
:1006E000012810D02168022810D0890700292EDAAD
:1006F000616821F0030101436160FFF723FF804639
:1007000041F288390DE021688903EFE78901EDE7BF
:10071000FFF718FFA0EB0801494502D90320BDE807
:10072000F0876068696800F00C00B0EB810FEFD1D2
:10073000306800F00700B8420BD9306820F007009D
:1007400038433060306800F00700B84201D0012023
:10075000E5E72878400705D56068E96820F4E0609F
:10076000084360602878000706D56068296920F48E
:10077000605040EAC100606000F038F86168084AE3
:10078000C1F30311515CC84006490860064800687F
:10079000FFF7F8FE0020C2E70020024000100240F0
:1007A000E80E00080C000020040000200448054961
:1007B00000684968044AC1F30221515CC84070478F
:1007C0000C00002000100240F80E00080448054903
:1007D00000684968044AC1F3C221515CC8407047AF
:1007E0000C00002000100240F80E000812A185B095
:1007F0000FC98DE80F0014A0144A006804905168D6
:10080000134801F00C03042B10D0082B0ED1C1F3B8
:100810008343C9031DF803000AD5516804AAC1F334
:100820004041515C0A4A5043B0FBF1F005B07047BB
:1008300008494843FAE700000203040506070809CF
:100840000A0B0C0D0E0F10100102000000100240E8
:1008500000127A0000093D002DE9F84F040070D025
:100860002078C04DC00749D06868C0F381000128D6
:1008700007D06868C0F38100022809D16868C00306
:1008800006D52868800339D560680028E7D035E0B0
:100890006068B0F5803F0BD010B1B0F5A02F11D03B
:1008A000286820F480302860286820F4802002E046
:1008B000286840F480302860606890B1FFF742FEFD
:1008C00006460AE0286840F480202860F0E700BF70
:1008D000FFF738FE801B642873D828688003F7D59B
:1008E0000CE0FFF72FFE064605E000BFFFF72AFEEB
:1008F000801B6428F0D828688003F7D420789A4EAB
:1009000080074FF001094FF0000839D5686810F0F2
:100910000C0F07D06868C0F38100022809D168680D
:10092000C00306D42868800714D52069012808D19F
:1009300010E02069B0B1C6F80090FFF703FE07464B
:1009400005E00AE1FFF7FEFDC01B0228C4D82868B5
:100950008007F7D52868616920F0F80040EAC100F7
:1009600028600DE0C6F80080FFF7ECFD074604E0C4
:10097000FFF7E8FDC01B022823D828688007F7D4BA
:10098000207800072CD57948A169D9B1C0F800902A
:10099000FFF7D8FD074604E0FFF7D4FDC01B02288F
:1009A0000FD8686A8007F7D571484FF4FA5100688C
:1009B000B0FBF1F0009000BF0098411E0091FAD208
:1009C0000EE080E0C0F80080FFF7BCFD074604E0C1
:1009D000FFF7B8FDC01B022875D8686A8007F7D4F6
:1009E0002078400760D5E8690027C00008D4E8698E
:1009F00040F08050E861E869012700F080500090E5
:100A00005C480168C90513D40168834641F48071CC
:100A10000160FFF797FD824606E000BFFFF792FDF9
:100A2000A0EB0A0064284ED8DBF80000C005F5D51D
:100A3000E06801280AD008B1052813D0286A20F000
:100A400001002862286A20F0040002E0286A40F0D1
:100A500001002862E06841F2883B98B1FFF772FD1F
:100A600082460BE0286A40F004002862EEE700BFEF
:100A7000FFF768FDA0EB0A0159455AD8286A80079C
:100A8000F6D50CE0FFF75EFD824605E0FFF75AFD64
:100A9000A0EB0A0159454CD8286A8007F6D41FB14B
:100AA000E86920F08050E861E06988B36968C1F3C3
:100AB0008101022944D00228C6F8608004D0FFF7E3
:100AC00041FD044638E034E0FFF73CFD074604E012
:100AD000FFF738FDC01B02282BD828688001F7D407
:100AE000206AB0F5803F05D16868A16820F4003025
:100AF00008436860D4E908010843696821F4741167
:100B000008436860C6F86090FFF71CFD044606E0E5
:100B100025E000BFFFF716FD001B022809D8286852
:100B20008001F7D51BE000BFFFF70CFD001B02287A
:100B300002D90320BDE8F88F28688001F4D40EE0C4
:100B40000128F7D06868226A00F48031914204D10C
:100B5000616A00F47010884201D00120EAE70020A9
:100B6000E8E70000001002400000424280044242D8
:100B70000C0000200070004010B5401EB0F1807FD6
:100B800001D3012010BD4FF0E02460610F216017F8
:100B900000F063F90020A06107202061002010BD53
:100BA00070B5040004D094F83D00002510B106E0B3
:100BB000012070BD84F83C50204600F023F824202A
:100BC00084F83D002068C16821F40051C1602046CE
:100BD00000F0E6F82068016921F490410161206885
:100BE000416921F02A0141612068C16841F4005146
:100BF000C1602564202084F83D0084F83E00002078
:100C000070BD000030B585B00024009401940294BA
:100C1000039400681449884224D11448816941F43E
:100C200080418161816901F480410491816941F0D1
:100C30000401816180690E4D00F0040004904FF4BE
:100C4000007000900220019003200390694628461E
:100C5000FFF782FB2815CDE9000469462846029477
:100C6000FFF77AFB05B030BD0038014000100240AC
:100C700000080140FEE7000070B586B000252D4851
:100C80000095019502950395816941F010018161FC
:100C9000816901F010010491816941F020018161B5
:100CA000816901F020010491816941F004018161B1
:100CB0008069214E00F004004FF40054049000229B
:100CC00021463046FFF738FC0220CDE9025000945F
:100CD0000124694601943046FFF73EFB174D03207F
:100CE000CDE90005164E694602943046FFF734FB05
:100CF0000820CDE90005694602943046FFF72CFB39
:100D0000002211460620FFF789FC0620FFF778FC39
:100D1000002211460720FFF781FC0720FFF770FC37
:100D2000002211460920FFF779FC0920FFF768FC33
:100D300006B070BD001002400010014000002110FC
:100D400000080140FEE7FEE770477047FFF700BC70
:100D500030B58FB028216846FFF736FA14210AA86B
:100D6000FFF732FA01252804CDE90050002407944A
:100D70006846FFF771FD08B172B6FEE70F200A90D2
:100D8000CDE90B540D9400210AA80E94FFF778FCCE
:100D9000002801D072B6FEE70FB030BD70470000EA
:100DA00070B5044600680169E26821F440511143BE
:100DB00001612169A0680843616908432168CA6824
:100DC00041F20C639A430243CA6020684169A269F8
:100DD00021F44071114341611E492068884202D1CB
:100DE000FFF7F4FC01E0FFF7E1FC00EBC00101EBD1
:100DF0000012606864218000B2FBF0F3B3FBF1F3F2
:100E00006FF018067343B2FBF0F5B2FBF0F605EB9A
:100E10008305322303EB0515B5FBF1F5B6FBF1F6BF
:100E200005F0F00505EB0615B2FBF0F6B2FBF0F0AD
:100E3000B0FBF1F06FF01802504306EB800003EBBB
:100E40000010B0FBF1F0216800F00F00284488602A
:100E500070BD000000380140FEE70907090E0028B8
:100E600004DB00F1E02080F80014704700F00F0070
:100E700000F1E02080F8141D70470000FFF770FBC0
:100E8000FFF766FFFFF7F8FE154814490C220160D2
:100E90004FF4E131416000218160C160C0E904127A
:100EA0008161C161FFF77CFE08B172B6FEE70D4CAF
:100EB0004FF400564FF47A75012231462046FFF771
:100EC0003BFB2846FFF7EEF9002231462046FFF7AC
:100ED00033FB2846FFF7E6F9EEE700000038014053
:100EE0001000002000100140000000000000000081
:100EF00001020304060708090000000001020304C0
:100F0000200F000800000020100000002801000849
:100F1000300F000810000020A8060000440100085F
:100F20000100000010000000000000000024F40098
:04000005080000ED02
:00000001FF
